:020000040800F2
:1000000000500020511D00081103000813030008D0
:10001000150300081703000819030008000000007A
:100020000000000000000000000000001B030008AA
:100030001D030008000000001F0300082103000842
:10004000991D0008991D0008991D0008991D0008B8
:10005000991D0008991D0008991D0008991D0008A8
:10006000991D0008991D0008991D0008991D000898
:10007000991D0008991D0008991D0008991D000888
:10008000991D0008991D0008991D0008991D000878
:10009000991D0008991D0008991D000825030008F6
:1000A000991D0008991D0008991D0008991D000858
:1000B00049030008991D0008991D0008991D0008B2
:1000C000991D0008991D0008991D0008991D000838
:1000D000991D000855030008991D0008991D000886
:1000E000991D0008991D0008991D000800000000D6
:1000F0000000000000000000000000000000000000
:0C01000000000000000000005FF808F1A3
:10010C0010B5054C237833B9044B13B10448AFF345
:10011C0000800123237010BD20000020000000008F
:10012C00F41D000808B5034B1BB103490348AFF39A
:10013C00008008BD0000000024000020F41D000811
:10014C001022F0B589B00DEB0200002101F044FE45
:10015C002E4B2F4D9A692F4E42F010029A619A69DC
:10016C00284602F010020192019A9A694FF400514C
:10017C0042F004029A619A69002402F0040202928D
:10018C00029A9A69022742F008029A619B6900223E
:10019C0003F008030393039B00F03AFC0022304663
:1001AC000F2100F035FC4FF400530493112304A9E4
:1001BC002846059301250694079700F0BDFA0F23F6
:1001CC0004A93046049305950694079700F0B4FAF9
:1001DC004FF470430695104D04A9284604930594DA
:1001EC0000F0AAFA4FF4707304930C4B04A9284640
:1001FC000593069400F0A0FA22462146172000F041
:10020C00E5F9172000F024FA09B0F0BD0010024007
:10021C000010014000080140000C014000001110CA
:10022C0000B591B02822002106A801F0D5FD1422BA
:10023C00002101A801F0D0FD0223069301230A93AB
:10024C00102306A80B9300F01BFC00210F2301A820
:10025C000193029103910491059100F04FFE11B0AE
:10026C005DF804FB08B500F06FF9FFF7D9FFFFF755
:10027C0067FF00F0E5F800F093F80C4C0C4E0D4DB8
:10028C0000F080F92368C01AB0F5FA7FF8D900F0B5
:10029C0079F94FF400512060304600F0D3FB132263
:1002AC002946054801F046FCEAE700BF3C00002067
:1002BC0000100140000000208000002070477047B3
:1002CC000E4B82B09A6942F001029A619A6902F06F
:1002DC0001020092009ADA6942F08052DA61DB691D
:1002EC00074A03F080530193019B536823F0E063AA
:1002FC0043F00073536002B0704700BF001002401F
:10030C00000001407047FEE7FEE7FEE7FEE770479E
:10031C007047704700F02AB908B5402000F0A4FBE4
:10032C00802000F0A1FB4FF4807000F09DFBBDE835
:10033C0008404FF4007000F097BB0000014801F03A
:10034C0032B900BF40000020014801F053BC00BF8F
:10035C00800000200F4B1A6842F001021A605968A5
:10036C000D4A0A405A601A6822F0847222F48032D4
:10037C001A601A6822F480221A605A6822F4FE026B
:10038C005A604FF41F029A604FF00062034B9A6060
:10039C00704700BF001002400000FFF800ED00E0C5
:1003AC007FB51022002102A801F016FD00230822BF
:1003BC004FF0804113480093019380E8060083605E
:1003CC00642203618023C260836101F0C7F908B124
:1003DC00FFF774FF4FF4805302A90A48029300F010
:1003EC00BDFE08B1FFF76AFF00236946054800937C
:1003FC00019301F007FA08B1FFF760FF07B05DF851
:10040C0004FB00BF40000020036807B5B3F1804F28
:10041C0012D103F50433DA691C2042F00102DA61CF
:10042C000022DB69114603F001030193019B00F0EC
:10043C00CDF81C2000F00CF903B05DF804FB0000B3
:10044C0008B54FF4E13E0A480A4B0C2280E80840FC
:10045C00002342618360C36003618361C36101F067
:10046C0001FB18B1BDE80840FFF728BF08BD00BF6D
:10047C00800000200038014010B5044686B01022E0
:10048C00002102A801F0A8FC22681B4B9A4230D133
:10049C0003F558439A6902A942F480429A619A6919
:1004AC00164802F480420092009A9A69002442F0A5
:1004BC0004029A619B6903F004030193019B4FF4BE
:1004CC0000730293022303930323059300F034F982
:1004DC004FF4806302A9094802930394049400F03A
:1004EC002BF925202246214600F070F8252000F03B
:1004FC00AFF806B010BD00BF003801400008014045
:10050C0038B50E4B054618784FF47A73B3FBF0F3FD
:10051C000B4A1068B0FBF3F000F0B0F8044658B981
:10052C000F2D09D8024629464FF0FF3000F04EF847
:10053C00044B20461D6038BD012038BD180000203A
:10054C00140000201C000020074A08B51368032083
:10055C0043F01003136000F01BF80020FFF7D0FFEE
:10056C00FFF7AEFE002008BD00200240034A044BFA
:10057C0011681B780B441360704700BFC00000204B
:10058C0018000020014B1868704700BFC000002005
:10059C00C31E042B10B5044603D9A2210948FFF74A
:1005AC008EFE094A2402D36804F4E06423F4E06369
:1005BC001B041B0C43F0BF6343F400331C43D46097
:1005CC0010BD00BF341E000800ED00E00F2A70B50E
:1005DC0004460E46154603D9BA211A48FFF76FFE9A
:1005EC000F2E03D9BB211748FFF769FE164B0120CC
:1005FC00D968C1F30221C1F107030A1D042B28BFDE
:10060C000423062A94BF0021033900FA03F2013AAD
:10061C008840324001388A400540002C42EA0502ED
:10062C004FEA0212AFBF04F16044084B04F00F0410
:10063C00D2B2A5BFD2B204F561441A5584F8002396
:10064C0070BD00BF341E000800ED00E014ED00E0AA
:10065C0010B5041E03DACE210648FFF730FE012345
:10066C00620904F01F0403FA04F4034B43F822401C
:10067C0010BD00BF341E000800E100E00138B0F1ED
:10068C00807F0AD2F021064B064A586082F823106C
:10069C000020072298601A6070470120704700BF45
:1006AC0010E000E000ED00E090F8213010B5022BD6
:1006BC0003D004238363012010BD03681A6822F061
:1006CC000E021A601A6822F001021A60184A93424C
:1006DC001FD0143293421ED0143293421DD01432C8
:1006EC0093421DD0143293421DD0143293420CBF4E
:1006FC004FF480134FF080730E4A00245360012393
:10070C0080F82130436B80F820407BB1984720461D
:10071C0010BD0123F0E71023EEE74FF48073EBE7F5
:10072C004FF48053E8E74FF48033E5E7184610BDEB
:10073C0008000240000002402DE9F04FAA4A85B0A3
:10074C00904204468B46019213D002F5806290428F
:10075C000FD002F5806290420BD002F5806290427D
:10076C0007D002F58062904203D0CD219F48FFF75D
:10077C00A6FDDBF8002091B211B1120C12041AB1D3
:10078C00CE219A48FFF79BFDDBF80420032A17D9EA
:10079C00A2F11101012913D9954822F400118142CB
:1007AC000ED000F5801082420AD0A0F57020814254
:1007BC0006D090498A4203D0CF218C48FFF77FFDA9
:1007CC000025A846DFF844A28B4E0122DBF800700E
:1007DC0002FA08F909EA0707B94540F08F80019B36
:1007EC009C4211D085498C420ED0854B9C420BD03B
:1007FC0001F500618C4207D001F580618C4203D079
:10080C00DD217A48FFF75BFDDBF80410122900F0BC
:10081C00D38000F28D80022900F0C18077D80029A6
:10082C0000F09380012900F0AE80FF2F82BF08F109
:10083C00804EAEF1080E4FEA8E014FF00F0E9DBFA9
:10084C00204622684FEA880162680EFA01FC22EA0F
:10085C000C0205FA01F188BF201D11430160DBF881
:10086C000400C3004AD5DAF8182028F0030142F03E
:10087C000102CAF81820DAF8182001F1804102F0C0
:10088C000102039201F5803108F0030C019B039ADD
:10089C004FEA8C0C8A680EFA0CFE9C4222EA0E0E71
:1008AC0000F09B80554A944200F09980544B9C4236
:1008BC0000F0978002F50062944214BF04220322D8
:1008CC0002FA0CF242EA0E028A603268C1034CBF93
:1008DC003A43BA433260726883034CBF3A43BA431B
:1008EC007260B268C1024CBF3A43BA43B260F2685C
:1008FC0083024CBF174322EA0707F76008F101088F
:10090C00B8F1100F7FF461AF05B0BDE8F08F03298B
:10091C005FD0112989D1DBF80C20013A022A03D9C6
:10092C00EC213248FFF7CBFCDBF80C5004357CE7AC
:10093C003448814209D01CD8A0F58010814204D0E3
:10094C0000F5803081427FF470AFDBF8081002298B
:10095C0004D940F207112548FFF7B1FCDBF8081069
:10096C00C9B301290CBFC4F81090C4F81490082521
:10097C005BE725488142E8D000F580308142E4D025
:10098C00A0F58010DEE7DBF80C20013A022A03D92F
:10099C00E5211648FFF793FCDBF80C5045E7DBF834
:1009AC000C20013A022A03D9F3211048FFF787FCE7
:1009BC00DBF80C50083538E7DBF80C20013A022A3A
:1009CC0003D9FA210948FFF77AFCDBF80C500C35F7
:1009DC002BE7002529E7042527E7002270E70122F1
:1009EC006EE702226CE700BF000801406F1E000892
:1009FC00000011100000221000040140000C014006
:100A0C0000100140000021100000311000100240C5
:100A1C0070B5054616460C4621B940F2E31108485C
:100A2C00FFF74DFC012E06D94FF4F2710448FFF785
:100A3C0046FC2C6170BD002EFBD12404F9E700BFED
:100A4C006F1E000838B505460C4621B940F2F91165
:100A5C000348FFF734FCEB685C40EC6038BD00BF2A
:100A6C006F1E00087047000008B5044B596901421D
:100A7C0002D05861FFF7F6FF08BD00BF000401402B
:100A8C002DE9F341044620B94FF4B871A548FFF79E
:100A9C0016FC236833B11A0704D140F27111A14836
:100AAC00FFF70DFC2368DB0718D423689F0772D46B
:100ABC002368190700F1B98023685A0700F1EB800D
:100ACC00E369022B04D940F2B9219648FFF7F7FBF2
:100ADC00E269002A40F05E81002020E0636833F474
:100AEC00803207D0B3F5A02F04D040F277118D4897
:100AFC00FFF7E5FB8C4D6B6803F00C03042B07D060
:100B0C006B6803F00C03082B0CD16B68DE0309D562
:100B1C002B689D03C9D56368002BC6D1012002B098
:100B2C00BDE8F0816368B3F5803F10D12B6843F4C6
:100B3C0080332B60FFF726FD06462B689803B4D450
:100B4C00FFF720FD801B6428F7D90320E7E79BB94A
:100B5C002B6823F480332B602B6823F480232B60C9
:100B6C00FFF710FD06462B6899039ED5FFF70AFD8B
:100B7C00801B6428F7D9E8E7B3F5A02F2B6803D1C5
:100B8C0043F480232B60D1E723F480332B602B6854
:100B9C0023F48023CDE72369012B04D940F2AB1158
:100BAC006048FFF78CFB63691F2B04D94FF4D67197
:100BBC005C48FFF784FB5C4D6B6813F00C0F07D09F
:100BCC006B6803F00C03082B10D16B68DA030DD49F
:100BDC002B689B0702D52369012B9FD12B68626977
:100BEC0023F0F80343EAC2032B6061E722694F4B01
:100BFC006AB101221A60FFF7C5FC06462B689F07F5
:100C0C00ECD4FFF7BFFC801B0228F7D99DE71A60D4
:100C1C00FFF7B8FC06462B6898077FF549AFFFF73E
:100C2C00B1FC801B0228F6D98FE7A369012B04D9EC
:100C3C004FF4F6713B48FFF742FBA2693A4D3C4B2F
:100C4C00DAB101221A60FFF79DFC06466B6A9B071E
:100C5C000DD54FF4FA52374B1B68B3FBF2F30193EB
:100C6C0000BF019B5A1E0192002BF9D124E7FFF71C
:100C7C0089FC801B0228E9D967E71A60FFF782FC20
:100C8C0006466B6A9F077FF517AFFFF77BFC801B4F
:100C9C000228F6D959E7E368012B06D9052B04D0B5
:100CAC0040F21B211F48FFF70AFB1F4DEB69D800D0
:100CBC0024D40127EB6943F08053EB61EB6903F01B
:100CCC0080530093009B1C4E3368D90518D5E368FC
:100CDC00012B33D12B6A43F001032B62FFF752FC3B
:100CEC0041F2883680462B6A9B074CD5002F3FF487
:100CFC00E7AEEB6923F08053EB61E1E60027E2E716
:100D0C00336843F480733360FFF73CFC80463368F0
:100D1C00DA05DCD4FFF736FCA0EB08006428F6D922
:100D2C0013E700BFA81E000800100240000042425A
:100D3C00800442421400002000700040ABB92B6AC2
:100D4C0041F2883823F001032B622B6A23F0040351
:100D5C002B62FFF717FC06462B6A9807C6D5FFF7E0
:100D6C0011FC801B4045F7D9EFE6052B2B6A03D10C
:100D7C0043F004032B62ADE723F001032B622B6AD3
:100D8C0023F00403A9E7FFF7FDFBA0EB0800B0423A
:100D9C00A9D9DAE6384D6B6803F00C03082B3FF445
:100DAC00BDAE022A354E57D1236A33F4803304D0BA
:100DBC0040F2C2213248FFF782FA636A33F44022D0
:100DCC0023F4802110D0B2F5801F0DD0B2F5001F96
:100DDC000AD0B1F5401F07D0B3F5601F04D040F224
:100DEC00C3212748FFF76BFA00233360FFF7CAFBD8
:100DFC0007462B68990129D4236AB3F5803F0ED19D
:100E0C00A36833F4003304D040F2D9211C48FFF717
:100E1C0056FA6B68A26823F4003313436B60236AA1
:100E2C00616A6A680B4322F4741213436B600123EA
:100E3C003360FFF7A7FB04462B689A013FF54CAED5
:100E4C00FFF7A0FB001B0228F6D97EE6FFF79AFB02
:100E5C00C01B0228CDD978E600233360FFF792FB44
:100E6C0004462B689B017FF537AEFFF78BFB001B0D
:100E7C000228F6D969E600BF001002406000424229
:100E8C00A81E000830B5194B87B002AC03F1100551
:100E9C00224618685968083303C2AB421446F7D18E
:100EAC0001238DF80430022311498DF805304B686D
:100EBC0003F00C02082A17D1C3F3834206A802449C
:100ECC00DB0312F8102C0CD54B680A48C3F34043D3
:100EDC00504306AA134413F8143CB0FBF3F007B0CC
:100EEC0030BD05485043FAE70248F8E70C1E0008ED
:100EFC000010024000127A0000093D002DE9F0417B
:100F0C000E46044620B940F22E317F48FFF7D7F940
:100F1C0023681D0704D140F22F317B48FFF7CFF92E
:100F2C00022E04D94FF44C717748FFF7C8F9774A71
:100F3C00136803F007039E423DD82368980747D4F3
:100F4C002368DA0770D4714A136803F007039E42D2
:100F5C00C0F0B58023686E4D13F0040F40F0BB80D9
:100F6C0023681B0717D5236933F480620CD023F454
:100F7C000072B2F5A06F07D0B3F5C06F04D04FF478
:100F8C006E716148FFF79BF96B68226923F460531B
:100F9C0043EAC2036B60FFF775FF6B685D4AC3F3EE
:100FAC000313D35CD8405C4B18600020FFF7A8FA01
:100FBC000020BDE8F081136823F00703334313606E
:100FCC00136803F007039E42B7D00120BDE8F081FF
:100FDC004F4D13F0040F1EBF6A6842F4E0626A6062
:100FEC00190742BF6B6843F460536B60A36833F01E
:100FFC00800212D023F02002902A0ED023F040025F
:10100C00A02A0AD023F01002C02A06D0F02B04D05C
:10101C0040F256313C48FFF752F96B68A26823F056
:10102C00F00313436B608BE76368022B04D940F227
:10103C005D313548FFF743F96268354D012A2B685D
:10104C001DD113F4003FC0D06B6841F2883823F0F7
:10105C00030313436B60FFF795FA63680746012B94
:10106C0015D16B6803F00C03042B3FF46CAFFFF746
:10107C0089FAC01B4045F4D90320BDE8F081022A4F
:10108C0002D113F0007FDEE713F0020FDBE7022B37
:10109C0010D16B6803F00C03082B3FF454AFFFF72F
:1010AC0071FAC01B4045F4D9E6E7FFF76BFAC01B99
:1010BC004045E1D86B6813F00C0FF6D143E7136889
:1010CC0023F0070333431360136803F007039E42B6
:1010DC007FF47BAF3EE7E36833F480620CD023F4FB
:1010EC000072B2F5A06F07D0B3F5C06F04D040F218
:1010FC00B1310548FFF7E3F86B68E26823F4E0636D
:10110C0013436B602CE700BFA81E000800200240B0
:10111C00001002401C1E000814000020044B054A5D
:10112C005B68C3F30223D35C034A1068D840704752
:10113C00001002402C1E000814000020044B054A2D
:10114C005B68C3F3C223D35C034A1068D840704772
:10115C00001002402C1E00081400002090F83C30B7
:10116C0070B5012B05460C464FF002002ED0012322
:10117C0085F83C300B6885F83D00B3F5805F0CD0EA
:10118C00B3F5005F09D033F0300306D0402B04D008
:10119C0040F67171B548FFF792F82B689A6822F403
:1011AC007F4222F077029A602268402A00F0628126
:1011BC002CD8102A00F0B98109D8002A00F09B81A4
:1011CC000123002085F83D3085F83C0070BD202AB5
:1011DC0000F0C581302AF3D1A54A93420FD0B3F168
:1011EC00804F0CD0A2F59432934208D002F5806265
:1011FC00934204D040F6F9719C48FFF760F82A68D6
:10120C00936823F0700343F03703A9E0702A00F0D1
:10121C00A98046D8502A00F0E780602AD0D1944AA1
:10122C0093420FD0B3F1804F0CD0A2F5943293427D
:10123C0008D002F58062934204D040F6C3718B480B
:10124C00FFF73DF86368B3F5004F09D033F00202A5
:10125C0006D00A2B04D040F6C6718448FFF72FF84D
:10126C00E3680F2B04D940F6C7718048FFF727F8C5
:10127C002B686668186AE46820F010001862996997
:10128C001A6A21F4704122F0A00242EA061241EAE5
:10129C00043199611A629A6822F0700242F0670276
:1012AC00E2E0B2F5805F44D0B2F5005F88D1704ABD
:1012BC0093420FD0B3F1804F0CD0A2F594329342ED
:1012CC0008D002F58062934204D04FF47A616748EB
:1012DC00FEF7F5FFA36833F4405304D040F6A37136
:1012EC006248FEF7ECFF6368B3F5004F09D033F0AA
:1012FC00020206D00A2B04D040F6A4715B48FEF71C
:10130C00DEFFE3680F2B04D940F6A5715748FEF7B2
:10131C00D6FF2A686068A36891680343E06821F4EB
:10132C007F4143EA00230B439360936843F480436B
:10133C0016E04F4A93420FD0B3F1804F0CD0A2F578
:10134C009432934208D002F58062934204D040F666
:10135C007D714648FEF7B3FF2A68936823F00703B4
:10136C0093602DE7424A93420FD0B3F1804F0CD0DB
:10137C00A2F59432934208D002F58062934204D0D5
:10138C0040F686713948FEF79AFFA36833F4405350
:10139C0004D040F689713548FEF791FF6368B3F5C8
:1013AC00004F09D033F0020206D00A2B04D040F6CD
:1013BC008A712E48FEF783FFE3680F2B04D940F6A1
:1013CC008B712A48FEF77BFF2A686068A3689168D6
:1013DC000343E06821F47F4143EA00230B4393600D
:1013EC00936843F07703BBE7214A93420FD0B3F1E4
:1013FC00804F0CD0A2F59432934208D002F5806253
:10140C00934204D040F6B4711848FEF758FF636855
:10141C00B3F5004F09D033F0020206D00A2B04D0EA
:10142C0040F6B7711148FEF74AFFE3680F2B04D959
:10143C0040F6B8710D48FEF742FF2B686168186AD8
:10144C00E6681C6A20F00A0024F001041C629A6908
:10145C00014322F0F00242EA06129A6119629A687C
:10146C0022F0700242F057029A60A9E6E01E0008D2
:10147C00002C0140474A93420FD0B3F1804F0CD05F
:10148C00A2F59432934208D002F58062934204D0C4
:10149C0040F6D2714048FEF712FF6368B3F5004F77
:1014AC0009D033F0020206D00A2B04D040F6D571D5
:1014BC003948FEF704FFE3680F2B04D940F6D671C8
:1014CC003548FEF7FCFE2B686168186AE6681C6AF2
:1014DC0020F00A0024F001041C629A69014322F0F6
:1014EC00F00242EA06129A6119629A6822F07002BE
:1014FC0042F04702B8E7274A93420FD0B3F1804F2E
:10150C000CD0A2F59432934208D002F5806293423B
:10151C0004D040F6E1712048FEF7D1FE2A689368AA
:10152C0023F0700343F007031AE71A4A93420FD0D3
:10153C00B3F1804F0CD0A2F59432934208D002F54F
:10154C008062934204D040F6E9711348FEF7B7FE6F
:10155C002A68936823F0700343F0170300E70D4AE1
:10156C0093420FD0B3F1804F0CD0A2F5943293423A
:10157C0008D002F58062934204D040F6F17106481F
:10158C00FEF79DFE2A68936823F0700343F027034F
:10159C00E6E600BF002C0140E01E000870477047D3
:1015AC00704770477047036810B51A690446910775
:1015BC000ED5DA6892070BD56FF002021A61012280
:1015CC009B6902779B0777D0FFF7EAFF002323770D
:1015DC0023681A69500710D5DA6851070DD56FF0DA
:1015EC0004021A6102229B69227713F4407F204681
:1015FC0068D0FFF7D5FF0023237723681A691207F9
:10160C000FD5DA6810070CD56FF008021A610422A6
:10161C00DB692277990720465AD0FFF7C1FF0023D8
:10162C00237723681A69D20610D5DA68D0060DD54F
:10163C006FF010021A610822DB69227713F4407FE5
:10164C0020464BD0FFF7ACFF0023237723681A69A1
:10165C00D10708D5DA68D20705D56FF0010220460C
:10166C001A61FFF79BFF23681A69100608D5DA6820
:10167C00110605D56FF0800220461A6100F011F9B1
:10168C0023681A69520608D5DA68500605D56FF03A
:10169C00400220461A61FFF785FF23681A699106FC
:1016AC0022D5DA6892061FD56FF020022046BDE8DD
:1016BC0010401A6100F0F4B8FFF771FF2046FFF7F5
:1016CC0070FF83E7FFF76BFF2046FFF76AFF92E797
:1016DC00FFF765FF2046FFF764FFA0E7FFF75FFF0A
:1016EC002046FFF75EFFAFE710BD00001A4A036803
:1016FC0090420AD0B0F1804F07D0A2F594329042BC
:10170C0003D002F58062904215D14A6823F0700331
:10171C001343114A90420AD0B0F1804F07D0A2F582
:10172C009432904203D002F58062904203D1CA6891
:10173C0023F4407313434A6923F08003134303607B
:10174C008B68C3620B688362034B984204BF0B69BE
:10175C000363012343617047002C014010B504461C
:10176C00002849D00368254A93420ED0B3F1804F2C
:10177C000BD0A2F59432934207D002F580629342CB
:10178C0003D0D9211E48FEF79AFDA36833F010024E
:10179C0009D023F04002202A05D0402B03D0DA21B7
:1017AC001748FEF78CFD236933F4807206D0B3F52D
:1017BC00007F03D0DB211248FEF781FDA36933F0D3
:1017CC00800303D0DC210E48FEF779FD94F83D3000
:1017DC0003F0FF0223B984F83C202046FEF714FEE8
:1017EC000223206884F83D30211DFFF77FFF012381
:1017FC00002084F83D3010BD012010BD002C0140AC
:10180C00E01E000838B5244A0368044693420D468E
:10181C000FD0B3F1804F0CD0A2F59432934208D084
:10182C0002F58062934204D04FF4C7611B48FEF767
:10183C0046FD2B6833F0300306D0402B04D040F229
:10184C0039611648FEF73BFD6B6833F0800304D01A
:10185C0040F23A611148FEF732FD94F83C30022018
:10186C00012B18D0236884F83D005A68296822F0AF
:10187C0070025A605A6800200A435A609A68696874
:10188C0022F080029A609A680A439A60012384F8D5
:10189C003C0084F83D3038BD002C0140181F000876
:1018AC00704770470368DA6822F49072DA605A69FC
:1018BC0022F001025A61202380F83A307047000070
:1018CC004268654B2DE9F0479A42814604D940F6AF
:1018DC00A7116248FEF7F3FCD9F80C3033F400532F
:1018EC0004D040F6A8115D48FEF7E9FCD9F8103099
:1018FC0033F4806207D0B3F5C06F04D040F6A91161
:10190C005648FEF7DCFC4FF6F372D9F8143013424C
:10191C0000D123B940F6AA115048FEF7D0FCD9F8F3
:10192C000050D9F80C202B69D9F8101023F440532F
:10193C0013432B61D9F80830EA680B43D9F814101B
:10194C0022F4B05222F00C020B431343EB606B6990
:10195C00D9F8182023F4407313436B61404B1924BE
:10196C009D4246D1FFF7EAFB04FB00F3D9F8046073
:10197C004FF06408B600B3FBF6F3B3FBF8F31E01AB
:10198C00FFF7DCFB6043D9F804309B00B0FBF3F7A6
:10199C00FFF7D4FB6043D9F804309B00B0FBF3F3A2
:1019AC00B3FBF8F308FB13731B013233B3FBF8F3EF
:1019BC0003F0F007FFF7C2FB6043D9F80420920054
:1019CC00B0FBF2FAFFF7BAFB6043D9F804309B0086
:1019DC00B0FBF3F3B3FBF8F308FB13A31B01323397
:1019EC00B3FBF8F303F00F033B433344AB60BDE8A8
:1019FC00F087FFF793FB04FB00F3D9F804604FF07A
:101A0C006408B600B3FBF6F3B3FBF8F31E01FFF763
:101A1C0085FB6043D9F804309B00B0FBF3F7FFF76C
:101A2C007DFB6043D9F804309B00B0FBF3F3B3FBB0
:101A3C00F8F308FB13731B013233B3FBF8F303F019
:101A4C00F007FFF76BFB6043D9F804209200B0FB62
:101A5C00F2FAFFF763FBB7E720AA4400531F000814
:101A6C000038014010B5044600285BD0816903683A
:101A7C002D4A00294AD093420CD0A2F574429342CD
:101A8C0008D002F58062934204D040F20F1127482F
:101A9C00FEF715FCA36933F4407304D04FF488713E
:101AAC002248FEF70CFCA36833F4805304D04FF4A7
:101ABC008B711E48FEF703FC94F8393003F0FF02DB
:101ACC0023B984F838202046FEF7D6FC242322685C
:101ADC0084F83930D368204623F40053D360FFF7E1
:101AEC00EFFE236800201A6922F490421A615A69A9
:101AFC0022F02A025A61DA6842F40052DA6020239A
:101B0C00E06384F8393084F83A3010BD9342CAD07F
:101B1C00074A9342C7D002F580629342C3D04FF478
:101B2C008A71BDE7012010BD00380140531F000829
:101B3C000044004090F83930202B18D1A9B1A2B143
:101B4C0090F83830012B12D0C284828400232122D9
:101B5C0001620168C36380F83920CA6880F83830A4
:101B6C0042F08002CA60184670470120704702207C
:101B7C0070477047704790F83A3010B5222B36D129
:101B8C0083680169B3F5805F0268836A23D1526868
:101B9C00E9B9C2F3080223F8022B8362C48D013C1D
:101BAC00A4B2C4858CB90368DA6822F02002DA602A
:101BBC00DA6822F48072DA605A6922F001025A6102
:101BCC00202380F83A30FFF7D5FF002010BDD2B2A9
:101BDC0023F8012BE1E721B9591C526881621A7074
:101BEC00DCE75268591C816202F07F02F7E70220A1
:101BFC0010BD7047036870B51A6804461607D9689B
:101C0C005D6907D196065AD58D0658D5BDE870404A
:101C1C00FFF7B1BF15F0010502D111F4907F4ED042
:101C2C00D30705D5CE0542BFE36B43F00103E36355
:101C3C00500704D51DB1E36B43F00203E363930734
:101C4C0004D51DB1E36B43F00403E363160704D51D
:101C5C001DB1E36B43F00803E363E36B002B66D029
:101C6C00950604D5880602D52046FFF784FF236825
:101C7C0020465D69E26B110702D415F040051AD0BD
:101C8C00FFF710FE23685A69520610D55A69606B2B
:101C9C0022F040025A6150B1254B4363FEF704FD1C
:101CAC00002844D0606BBDE87040436B1847204659
:101CBC00FFF79FFF70BDFFF79CFFE56370BD160635
:101CCC0027D50D0625D594F83920212A2FD1A268C5
:101CDC00B2F5805F226A17D11188C1F308015960EF
:101CEC00216979B902322262E28C013A92B2E28421
:101CFC00EAB9DA6822F08002DA60DA6842F040026F
:101D0C00DA6070BD0132EEE7511C216212785A6024
:101D1C00EAE750060BD54A0609D5DA68204622F0C8
:101D2C004002DA60202384F83930FFF722FF70BDBF
:101D3C00411D000808B50023406AC385C384FFF722
:101D4C0058FF08BD002103E00B4B5B584350043196
:101D5C000A480B4B42189A42F6D30A4A02E0002377
:101D6C0042F8043B084B9A42F9D3FEF7F3FA00F021
:101D7C000FF8FEF777FA7047941F00080000002058
:101D8C002000002020000020C4000020FEE70000FE
:101D9C0070B500250C4E0D4CA41BA410A54209D106
:101DAC0000F022F800250A4E0A4CA41BA410A542F0
:101DBC0005D170BD56F8253098470135EEE756F839
:101DCC00253098470135F2E78C1F00088C1F00085E
:101DDC008C1F0008901F000803460244934200D158
:101DEC00704703F8011BF9E7F8B500BFF8BC08BC55
:101DFC009E467047F8B500BFF8BC08BC9E467047BD
:101E0C0002030405060708090A0B0C0D0E0F10102F
:101E1C00000000000000000001020304060708098E
:101E2C0000000000010203042E2E5C4472697665EA
:101E3C0072735C53544D3332463178785F48414C61
:101E4C005F4472697665725C5372635C73746D3354
:101E5C0032663178785F68616C5F636F7274657835
:101E6C002E63002E2E5C447269766572735C53543B
:101E7C004D3332463178785F48414C5F4472697615
:101E8C0065725C5372635C73746D3332663178784F
:101E9C005F68616C5F6770696F2E63002E2E5C4407
:101EAC007269766572735C53544D3332463178786F
:101EBC005F48414C5F4472697665725C5372635C37
:101ECC0073746D3332663178785F68616C5F7263FE
:101EDC00632E63002E2E5C447269766572735C53BC
:101EEC00544D3332463178785F48414C5F447269C7
:101EFC007665725C5372635C73746D3332663178E1
:101F0C00785F68616C5F74696D2E63002E2E5C4483
:101F1C007269766572735C53544D333246317878FE
:101F2C005F48414C5F4472697665725C5372635CC6
:101F3C0073746D3332663178785F68616C5F746985
:101F4C006D5F65782E63002E2E5C44726976657227
:101F5C00735C53544D3332463178785F48414C5F53
:101F6C004472697665725C5372635C73746D333260
:101F7C00663178785F68616C5F756172742E63008E
:041F8C003101000817
:041F90000D01000837
:101F94002068656C6C6F20696E64657846696E6450
:101FA4000A0D000000A24A04010000001000000015
:0400000508001D5181
:00000001FF
