:020000040800F2
:100000000050002091280008CD050008D9050008FF
:10001000DF050008E5050008EB050008000000000A
:10002000000000000000000000000000F1050008D2
:10003000FD0500080000000009060008150600087C
:10004000D9280008D9280008D9280008D92800088C
:10005000D9280008D9280008D9280008D92800087C
:10006000D9280008D9280008D9280008D92800086C
:10007000D9280008D9280008D9280008D92800085C
:10008000D9280008D9280008D9280008D92800084C
:10009000D9280008D9280008D92800082106000816
:1000A000D9280008D9280008D9280008D92800082C
:1000B00045060008D9280008D9280008D9280008D2
:1000C000D9280008D9280008D9280008D92800080C
:1000D000D928000859060008D9280008D92800089E
:1000E000D9280008D9280008D928000800000000F5
:1000F0000000000000000000000000000000000000
:0C01000000000000000000005FF808F1A3
:10010C0010B5054C237833B9044B13B10448AFF345
:10011C0000800123237010BDFC00002000000000B3
:10012C003429000808B5034B1BB103490348AFF34E
:10013C00008008BD000000000001002034290008E8
:10014C0080B588B000AF07F1100300221A605A6026
:10015C009A60DA60384A384B9B6943F0100393611C
:10016C00354B9B6903F01003FB60FB68324A324B42
:10017C009B6943F0040393612F4B9B6903F00403C9
:10018C00BB60BB682C4A2C4B9B6943F00803936102
:10019C00294B9B6903F008037B607B6800224FF4BA
:1001AC000051264800F0D9FE00220F21244800F00F
:1001BC00D4FE4FF400533B6111237B610023BB61E0
:1001CC000223FB6107F1100319461C4800F050FD97
:1001DC000F233B6101237B610023BB610223FB6185
:1001EC0007F110031946164800F042FD4FF4704316
:1001FC003B6100237B610123BB6107F110031946AE
:10020C00104800F035FD4FF470733B610E4B7B6171
:10021C000123BB6107F1100319460A4800F028FDC1
:10022C0000220021172000F070FC172000F089FC40
:10023C0000BF2037BD4680BD0010024000100140B9
:10024C0000080140000C01400000211080B500AFF7
:10025C004FF40051054800F098FE054B1B6842F224
:10026C0010710448984700BF80BD00BF00100140CA
:10027C00C02900081801002080B582B000AF78605A
:10028C0002F046FA00BF0837BD4680BD80B584B089
:10029C0000AF0346FB80FB88802B0ED0802B02DC4A
:1002AC00402B07D012E0B3F5807F09D0B3F5007F67
:1002BC0009D00BE00F4BFB600FE00F4BFB600CE029
:1002CC000E4BFB6009E00E4BFB6006E0094BFB603C
:1002DC00E1210C4802F0ECF900BF0B4B1B68FA68EB
:1002EC0002F12400FA68526B1146984700BF103790
:1002FC00BD4680BD000000203C000020780000209E
:10030C00B40000204C290008C029000880B582B038
:10031C0000AF0023BB7100F0C5FA334802F034FA89
:10032C00324B9B69324930489847304B1B6842F23C
:10033C0010712D4898470423BB7100F069F8FFF742
:10034C00FFFE00F031FA00F0BFF92A4801F093FAF1
:10035C00294802F019FA294802F016FA284802F046
:10036C0013FA284802F010FA204B9B69264A926B2C
:10037C001146214898471D4B9B69234A526F1146E1
:10038C001E489847194B9B691F4AD2F8B02011465A
:10039C001B489847154B9B691B4AD2F8EC20114619
:1003AC001848984700F0D6FA0246184B1B68D31A27
:1003BC00012BF7D90023FB710CE0FA7913461B01D2
:1003CC009B1A9B00104A1344184600F05CF8FB790A
:1003DC000133FB71FA79BB799A42EED300F0BAFA89
:1003EC0002460A4B1A60DDE718010020C0290008FC
:1003FC005902000830010020240000206000002079
:10040C009C000020D80000200000002028010020C3
:10041C0080B590B000AF07F11803282200211846D0
:10042C0002F07AFA3B1D00221A605A609A60DA6078
:10043C001A610223BB610123BB621023FB62002300
:10044C007B6307F11803184600F0C8FD0346002B28
:10045C0001D000F07DF80F237B600023BB600023EC
:10046C00FB6000233B6100237B613B1D0021184690
:10047C0001F018F80346002B01D000F069F800BF1A
:10048C004037BD4680BD80B584B000AF7860002396
:10049C00FB607B681A697B689B8A1946104600F0E2
:1004AC0045FD0346FB60FB68002B10D17B6893F87D
:1004BC002030002B0BD17B68012283F820207B6835
:1004CC0098697B689B8B0122194600F046FD00BFA2
:1004DC001037BD4680BD000080B500AF024800F06B
:1004EC0023F800BF80BD00BF0000002080B500AF26
:1004FC00024800F019F800BF80BD00BF3C0000208E
:10050C0080B500AF024800F00FF800BF80BD00BFFF
:10051C007800002080B500AF024800F005F800BF5D
:10052C0080BD00BFB400002080B582B000AF786001
:10053C007B6898697B689B8B0022194600F00DFD47
:10054C007B68002283F8202000BF0837BD4680BDA1
:10055C0080B400AF00BFBD4680BC704780B485B08E
:10056C0000AF154A144B9B6943F001039361124B86
:10057C009B6903F00103BB60BB680F4A0E4BDB6940
:10058C0043F08053D3610C4BDB6903F080537B60E9
:10059C007B680A4B5B68FB60FB6823F0E063FB60E5
:1005AC00FB6843F00073FB60044AFB68536000BFB8
:1005BC001437BD4680BC704700100240000001405B
:1005CC0080B400AF00BFBD4680BC704780B400AFA4
:1005DC00FEE780B400AFFEE780B400AFFEE780B466
:1005EC0000AFFEE780B400AF00BFBD4680BC7047D3
:1005FC0080B400AF00BFBD4680BC704780B400AF74
:10060C0000BFBD4680BC704780B500AF00F090F9CC
:10061C0000BF80BD80B500AF402000F0C7FC80203B
:10062C0000F0C4FC4FF4807000F0C0FC4FF400707C
:10063C0000F0BCFC00BF80BD80B500AF024801F0EB
:10064C0034F900BF80BD00BF3001002080B500AF81
:10065C00024801F0DFFC00BF80BD00BF700100202C
:10066C0080B400AF154A154B1B6843F001031360AF
:10067C001249124B5A68124B13404B600F4A0F4BE6
:10068C001B6823F0847323F4803313600B4A0B4BE9
:10069C001B6823F480231360084A084B5B6823F41F
:1006AC00FE035360054B4FF41F029A60054B4FF04D
:1006BC0000629A6000BFBD4680BC704700100240CB
:1006CC000000FFF800ED00E080B586B000AF07F148
:1006DC00080300221A605A609A60DA603B460022D6
:1006EC001A605A601D4B4FF080421A601B4B082257
:1006FC005A601A4B00229A60184B6422DA60174B2E
:10070C0000221A61154B80229A61144801F088F876
:10071C000346002B01D0FFF71BFF4FF48053BB6047
:10072C0007F1080319460D4801F0C7F90346002BE1
:10073C0001D0FFF70DFF00233B6000237B603B469D
:10074C001946064801F0C3FB0346002B01D0FFF706
:10075C00FFFE00BF1837BD4680BD00BF3001002032
:10076C0080B584B000AF78607B681B68B3F1804FB4
:10077C0013D10C4A0B4BDB6943F00103D361094BDA
:10078C00DB6903F00103FB60FB68002200211C20E5
:10079C0000F0BBF91C2000F0D4F900BF1037BD46A7
:1007AC0080BD00BF0010024080B500AF114B124A53
:1007BC001A60104B4FF4E1325A600E4B00229A60D3
:1007CC000C4B0022DA600B4B00221A61094B0C22F5
:1007DC005A61084B00229A61064B0022DA610548E7
:1007EC0001F0CBFB0346002B01D0FFF7B1FE00BF9D
:1007FC0080BD00BF700100200038014080B588B07A
:10080C0000AF786007F1100300221A605A609A60FA
:10081C00DA607B681B68204A934239D11F4A1F4B10
:10082C009B6943F4804393611C4B9B6903F48043A5
:10083C00FB60FB68194A194B9B6943F004039361F5
:10084C00164B9B6903F00403BB60BB684FF4007349
:10085C003B6102237B610323FB6107F11003194603
:10086C000F4800F005FA4FF480633B6100237B6175
:10087C000023BB6107F110031946094800F0F8F991
:10088C0000220021252000F040F9252000F059F924
:10089C0000BF2037BD4680BD00380140001002402B
:1008AC000008014080B500AF084A084B1B6843F0B4
:1008BC0010031360032000F01DF9002000F008F86D
:1008CC00FFF74CFE0023184680BD00BF00200240FD
:1008DC0080B582B000AF7860124B1A68124B1B784F
:1008EC0019464FF47A73B3FBF1F3B2FBF3F31846EA
:1008FC0000F035F90346002B01D001230EE07B6894
:10090C000F2B0AD8002279684FF0FF3000F0FDF869
:10091C00064A7B681360002300E001231846083761
:10092C00BD4680BDF0000020F8000020F40000203F
:10093C0080B400AF054B1B781A46054B1B6813445B
:10094C00034A136000BFBD4680BC7047F80000200E
:10095C00B001002080B400AF024B1B681846BD46A6
:10096C0080BC7047B001002080B485B000AF7860C7
:10097C007B6803F00703FB600C4BDB68BB60BA6859
:10098C004FF6FF031340BB60FB681A02BB681343AE
:10099C0043F0BF6343F40033BB60044ABB68D360CD
:1009AC0000BF1437BD4680BC704700BF00ED00E0AF
:1009BC0080B400AF044BDB681B0A03F00703184636
:1009CC00BD4680BC704700BF00ED00E080B483B032
:1009DC0000AF0346FB71084997F907305B09FA79B8
:1009EC0002F01F02012000FA02F241F8232000BF9E
:1009FC000C37BD4680BC704700E100E080B483B08A
:100A0C0000AF03463960FB7197F90730002B0BDA06
:100A1C000D49FB7903F00F03043B3A68D2B2120183
:100A2C00D2B20B441A7609E0084997F907303A68B4
:100A3C00D2B21201D2B20B4483F8002300BF0C37A0
:100A4C00BD4680BC704700BF00ED00E000E100E057
:100A5C0080B489B000AFF860B9607A60FB6803F0CD
:100A6C000703FB61FB69C3F10703042B28BF0423B5
:100A7C00BB61FB690433062B02D9FB69033B00E025
:100A8C0000237B610122BB6902FA03F35A1EBB6887
:100A9C001A407B699A4001217B6901FA03F3591EC4
:100AAC007B680B40134318462437BD4680BC704707
:100ABC0080B582B000AF78607B68013BB3F1807F7A
:100ACC0001D301230FE00A4A7B68013B53600F21DD
:100ADC004FF0FF30FFF792FF054B00229A60044B5A
:100AEC0007221A60002318460837BD4680BD00BF98
:100AFC0010E000E080B582B000AF78607868FFF756
:100B0C0033FF00BF0837BD4680BD80B586B000AF4F
:100B1C000346B9607A60FB7300237B61FFF748FFE3
:100B2C0078617A68B9687869FFF792FF024697F99D
:100B3C000F3011461846FFF761FF00BF1837BD464E
:100B4C0080BD80B582B000AF0346FB7197F90730CA
:100B5C001846FFF73BFF00BF0837BD4680BD80B588
:100B6C0082B000AF78607868FFF7A2FF03461846A2
:100B7C000837BD4680BD000080B584B000AF7860FA
:100B8C000023FB737B6893F82130022B05D07B6824
:100B9C0004229A630123FB7357E07B681B687A6815
:100BAC001268126822F00E021A607B681B687A6861
:100BBC001268126822F001021A60264A7B681B68D0
:100BCC001946254B99422ED07B681B681946234B3E
:100BDC00994226D07B681B681946214B99421DD03F
:100BEC007B681B6819461F4B994214D07B681B68A5
:100BFC0019461D4B99420BD07B681B6819461B4B41
:100C0C00994202D14FF480130EE04FF080730BE049
:100C1C004FF4803308E04FF4805305E04FF48073B9
:100C2C0002E0102300E0012353607B68012283F86B
:100C3C0021207B68002283F820207B685B6B002BD3
:100C4C0003D07B685B6B78689847FB7B1846103742
:100C5C00BD4680BD00000240080002401C0002405E
:100C6C003000024044000240580002406C00024038
:100C7C0080B48BB000AF786039600023FB61002337
:100C8C00BB6100237B6100233B6200233B6100239B
:100C9C007B6227E101227B6A02FA03F3FB613B686A
:100CAC001A68FB691340BB61BA69FB699A4240F050
:100CBC0016813B685B68122B34D0122B0DD8022B9B
:100CCC002BD0022B04D8002B31D0012B1CD048E0A8
:100CDC00032B43D0112B1BD043E0874A934226D0E1
:100CEC00854A934206D8854A934220D0844A93423F
:100CFC001DD036E0834A934219D0834A934216D0D2
:100D0C00824A934213D02CE03B68DB683B6228E0BC
:100D1C003B68DB6804333B6223E03B68DB680833E9
:100D2C003B621EE03B68DB680C333B6219E03B68BE
:100D3C009B68002B02D104233B6212E03B689B684A
:100D4C00012B05D108233B627B68FA691A6108E024
:100D5C0008233B627B68FA695A6102E000233B621C
:100D6C0000BFBB69FF2B01D87B6801E07B680433B3
:100D7C00FB60BB69FF2B02D87B6A9B0002E07B6A9D
:100D8C00083B9B003B61FB681A680F213B6901FA29
:100D9C0003F3DB431A40396A3B6901FA03F31A4344
:100DAC00FB681A603B685B6803F08053002B00F013
:100DBC009680574A564B9B6943F001039361544B01
:100DCC009B6903F00103BB60BB68524A7B6A9B08BA
:100DDC00023352F823307B617B6A03F003039B00E0
:100DEC000F2202FA03F3DB437A6913407B617B68C1
:100DFC00494A934213D07B68484A93420DD07B6892
:100E0C00474A934207D07B68464A934201D1032359
:100E1C0006E0042304E0022302E0012300E00023A7
:100E2C007A6A02F00302920093407A6913437B6161
:100E3C0038497B6A9B0802337A6941F823203B6866
:100E4C005B6803F48033002B06D03749364B1A68A5
:100E5C00BB6913430B6006E03349334B1A68BB691B
:100E6C00DB4313400B603B685B6803F40033002BDF
:100E7C0006D02D492C4B5A68BB6913434B6006E0D6
:100E8C002949294B5A68BB69DB4313404B603B68CB
:100E9C005B6803F48013002B06D02349224B9A681D
:100EAC00BB6913438B6006E01F491F4B9A68BB69F3
:100EBC00DB4313408B603B685B6803F40013002B2F
:100ECC0006D01949184BDA68BB691343CB6006E0AE
:100EDC001549154BDA68BB69DB431340CB607B6A61
:100EEC0001337B627B6A0F2B7FF6D4AE00BF2C37AD
:100EFC00BD4680BC704700BF0000211000001110DF
:100F0C0000001210000031100000321000002210FE
:100F1C00001002400000014000080140000C01409C
:100F2C0000100140001401400004014080B485B061
:100F3C0000AF78600B467B807B689A687B88134097
:100F4C00002B02D00123FB7301E00023FB73FB7B1E
:100F5C0018461437BD4680BC704780B483B000AFD0
:100F6C0078600B467B8013467B707B78002B03D01C
:100F7C007A887B681A6103E07B881A047B681A61A3
:100F8C0000BF0C37BD4680BC704780B483B000AF47
:100F9C0078600B467B807B68DA687B885A407B687C
:100FAC00DA6000BF0C37BD4680BC704780B582B09C
:100FBC0000AF0346FB80084B5A69FB881340002B9B
:100FCC0006D0054AFB885361FB881846FFF75EF98B
:100FDC0000BF0837BD4680BD0004014080B586B017
:100FEC0000AF786000233B617B681B6803F0010352
:100FFC00002B00F08780924B5B6803F00C03042BF2
:10100C000CD08F4B5B6803F00C03082B12D18C4B6C
:10101C005B6803F48033B3F5803F0BD1884B1B68BE
:10102C0003F40033002B6CD07B685B68002B68D119
:10103C0001232DE27B685B68B3F5803F06D1804AC3
:10104C007F4B1B6843F4803313602EE07B685B6836
:10105C00002B0CD17A4A7A4B1B6823F48033136033
:10106C00774A774B1B6823F4802313601DE07B6861
:10107C005B68B3F5A02F0CD1714A714B1B6843F41C
:10108C00802313606E4A6E4B1B6843F480331360ED
:10109C000BE06B4A6A4B1B6823F480331360684A7D
:1010AC00674B1B6823F4802313607B685B68002B01
:1010BC0013D0FFF74FFC386108E0FFF74BFC0246FA
:1010CC003B69D31A642B01D90323E1E15C4B1B6808
:1010DC0003F40033002BF0D014E0FFF73BFC386135
:1010EC0008E0FFF737FC02463B69D31A642B01D9A1
:1010FC000323CDE1524B1B6803F40033002BF0D1DA
:10110C0000E000BF7B681B6803F00203002B63D078
:10111C004B4B5B6803F00C03002B0BD0484B5B680C
:10112C0003F00C03082B1CD1454B5B6803F4803394
:10113C00002B16D1424B1B6803F00203002B05D089
:10114C007B681B69012B01D00123A1E13C493C4B7D
:10115C001B6823F0F8027B685B69DB0013430B60B0
:10116C003AE07B681B69002B20D0364B01221A60B9
:10117C00FFF7F0FB386108E0FFF7ECFB02463B6938
:10118C00D31A022B01D9032382E12D4B1B6803F0E8
:10119C000203002BF0D02A49294B1B6823F0F802DC
:1011AC007B685B69DB0013430B6015E0254B002269
:1011BC001A60FFF7CFFB386108E0FFF7CBFB024664
:1011CC003B69D31A022B01D9032361E11C4B1B6829
:1011DC0003F00203002BF0D17B681B6803F00803BB
:1011EC00002B39D07B689B69002B19D0164B012240
:1011FC001A60FFF7AFFB386108E0FFF7ABFB024664
:10120C003B69D31A022B01D9032341E10C4B5B6AD6
:10121C0003F00203002BF0D0012000F0E3FA1BE0F6
:10122C00094B00221A60FFF795FB38610EE0FFF7BF
:10123C0091FB02463B69D31A022B07D9032327E102
:10124C00001002400000424280044242924B5B6A12
:10125C0003F00203002BEAD17B681B6803F0040344
:10126C00002B00F0A6800023FB758B4BDB6903F091
:10127C008053002B0DD1884A874BDB6943F0805398
:10128C00D361854BDB6903F08053FB60FB68012362
:10129C00FB75824B1B6803F48073002B18D17F4ABB
:1012AC007E4B1B6843F480731360FFF753FB38616C
:1012BC0008E0FFF74FFB02463B69D31A642B01D9B8
:1012CC000323E5E0754B1B6803F48073002BF0D00F
:1012DC007B68DB68012B06D16F4A6F4B1B6A43F0AE
:1012EC00010313622DE07B68DB68002B0CD16A4A8A
:1012FC00694B1B6A23F001031362674A664B1B6A36
:10130C0023F0040313621CE07B68DB68052B0CD113
:10131C00614A614B1B6A43F0040313625E4A5E4BE5
:10132C001B6A43F0010313620BE05B4A5A4B1B6AC6
:10133C0023F001031362584A574B1B6A23F0040332
:10134C0013627B68DB68002B15D0FFF703FB386159
:10135C000AE0FFF7FFFA02463B69D31A41F28832E2
:10136C00934201D9032393E04B4B1B6A03F0020316
:10137C00002BEED014E0FFF7EDFA38610AE0FFF72E
:10138C00E9FA02463B69D31A41F28832934201D9F9
:10139C0003237DE0404B1B6A03F00203002BEED1CC
:1013AC00FB7D012B05D13C4A3B4BDB6923F0805381
:1013BC00D3617B68DB69002B69D0374B5B6803F02A
:1013CC000C03082B61D07B68DB69022B46D1344BB4
:1013DC0000221A60FFF7BEFA386108E0FFF7BAFA8C
:1013EC0002463B69D31A022B01D9032350E02A4B46
:1013FC001B6803F00073002BF0D17B681B6AB3F5FC
:10140C00803F08D12449244B5B6823F400327B686D
:10141C009B6813434B6020481F4B5B6823F474128A
:10142C007B68196A7B685B6A0B43134343601C4BF4
:10143C0001221A60FFF78EFA386108E0FFF78AFA8A
:10144C0002463B69D31A022B01D9032320E0124B2D
:10145C001B6803F00073002BF0D018E0104B002237
:10146C001A60FFF777FA386108E0FFF773FA024663
:10147C003B69D31A022B01D9032309E0064B1B68E5
:10148C0003F00073002BF0D101E0012300E00023F6
:10149C0018461837BD4680BD001002400070004051
:1014AC006000424280B584B000AF786039600023A0
:1014BC00FB607E4B1B6803F007023B689A4210D21C
:1014CC007A497A4B1B6823F007023B6813430B6085
:1014DC00764B1B6803F007023B689A4201D001234C
:1014EC00E0E07B681B6803F00203002B20D07B68D4
:1014FC001B6803F00403002B05D06D4A6C4B5B6832
:10150C0043F4E06353607B681B6803F00803002B13
:10151C0005D0674A664B5B6843F46053536064497B
:10152C00634B5B6823F0F0027B689B6813434B6052
:10153C007B681B6803F00103002B6AD07B685B6837
:10154C00012B07D15A4B1B6803F40033002B15D128
:10155C000123A7E07B685B68022B07D1544B1B6807
:10156C0003F00073002B09D101239BE0504B1B6847
:10157C0003F00203002B01D1012393E04C494C4BA7
:10158C005B6823F003027B685B6813434B60FFF7D7
:10159C00E1F9F8607B685B68012B12D10AE0FFF778
:1015AC00D9F90246FB68D31A41F28832934201D929
:1015BC00032377E03E4B5B6803F00C03042BEED166
:1015CC0027E07B685B68022B1DD10AE0FFF7C2F9AC
:1015DC000246FB68D31A41F28832934201D90323A5
:1015EC0060E0334B5B6803F00C03082BEED110E08A
:1015FC00FFF7B0F90246FB68D31A41F288329342E6
:10160C0001D903234EE02A4B5B6803F00C03002B3B
:10161C00EED1264B1B6803F007023B689A4210D9A7
:10162C002249224B1B6823F007023B6813430B60D3
:10163C001E4B1B6803F007023B689A4201D0012342
:10164C0030E07B681B6803F00403002B08D01849BA
:10165C00174B5B6823F4E0627B68DB6813434B60D9
:10166C007B681B6803F00803002B09D01049104B52
:10167C005B6823F460527B681B69DB0013434B608F
:10168C0000F01CF801460A4B5B681B0903F00F03C2
:10169C00084AD35C21FA03F3074A13600020FFF7D2
:1016AC0017F9002318461037BD4680BD00200240B4
:1016BC0000100240A8290008F000002090B48AB065
:1016CC0000AF2A4B3C1D0FCB84E80F00284B1B8826
:1016DC003B800023FB610023BB6100237B62002362
:1016EC007B6100233B62234B5B68FB61FB6903F06E
:1016FC000C03042B02D0082B03D02DE01E4B3B62B5
:10170C002DE0FB699B0C03F00F0307F12802134437
:10171C0013F8243C7B61FB6903F48033002B13D05A
:10172C00144B5B685B0C03F0010307F128021344B4
:10173C0013F8283CBB617B690F4A02FB03F2BB69BF
:10174C00B2FBF3F37B6204E07B690C4A02FB03F30C
:10175C007B627B6A3B6202E0074B3B6200BF3B6AE9
:10176C0018462837BD4690BC704700BF602900085A
:10177C00702900080010024000127A0000093D0098
:10178C0080B400AF024B1B681846BD4680BC704746
:10179C00F000002080B500AFFFF7F2FF0146054BCB
:1017AC005B681B0A03F00703034AD35C21FA03F3BB
:1017BC00184680BD00100240B829000880B500AF63
:1017CC00FFF7DEFF0146054B5B68DB0A03F00703FE
:1017DC00034AD35C21FA03F3184680BD0010024083
:1017EC00B829000880B485B000AF78600A4B1B683C
:1017FC000A4AA2FB03235B0A7A6802FB03F3FB6031
:10180C0000BFFB685A1EFA60002BF9D100BF1437D9
:10181C00BD4680BC704700BFF0000020D34D621065
:10182C0080B582B000AF78607B68002B01D10123BA
:10183C001DE07B6893F83D30DBB2002B06D17B6852
:10184C00002283F83C207868FEF78AFF7B6802222E
:10185C0083F83D207B681A687B6804331946104670
:10186C0000F02AFA7B68012283F83D2000231846F9
:10187C000837BD4680BD80B483B000AF78607B680C
:10188C001B687A681268D26842F00102DA607B68E1
:10189C001B687A681268126842F001021A60002311
:1018AC0018460C37BD4680BC704780B582B000AF7F
:1018BC0078607B681B681B6903F00203022B22D142
:1018CC007B681B68DB6803F00203022B1BD17B686F
:1018DC001B686FF002021A617B6801221A777B6821
:1018EC001B689B6903F00303002B03D0786800F09E
:1018FC00C8F905E0786800F0BBF9786800F0CAF91F
:10190C007B6800221A777B681B681B6903F0040351
:10191C00042B22D17B681B68DB6803F00403042BC7
:10192C001BD17B681B686FF004021A617B68022272
:10193C001A777B681B689B6903F44073002B03D0F8
:10194C00786800F09EF905E0786800F091F9786805
:10195C0000F0A0F97B6800221A777B681B681B6972
:10196C0003F00803082B22D17B681B68DB6803F0AB
:10197C000803082B1BD17B681B686FF008021A61E7
:10198C007B6804221A777B681B68DB6903F003030E
:10199C00002B03D0786800F074F905E0786800F04B
:1019AC0067F9786800F076F97B6800221A777B6813
:1019BC001B681B6903F01003102B22D17B681B687A
:1019CC00DB6803F01003102B1BD17B681B686FF0D6
:1019DC0010021A617B6808221A777B681B68DB6926
:1019EC0003F44073002B03D0786800F04AF905E04B
:1019FC00786800F03DF9786800F04CF97B680022BB
:101A0C001A777B681B681B6903F00103012B0ED14D
:101A1C007B681B68DB6803F00103012B07D17B6833
:101A2C001B686FF001021A617868FEF725FC7B6871
:101A3C001B681B6903F08003802B0ED17B681B682D
:101A4C00DB6803F08003802B07D17B681B686FF089
:101A5C0080021A61786800F087FA7B681B681B6942
:101A6C0003F04003402B0ED17B681B68DB6803F04E
:101A7C004003402B07D17B681B686FF040021A6152
:101A8C00786800F010F97B681B681B6903F0200371
:101A9C00202B0ED17B681B68DB6803F02003202B06
:101AAC0007D17B681B686FF020021A61786800F020
:101ABC0052FA00BF0837BD4680BD80B584B000AF78
:101ACC00786039600023FB607B6893F83C30012B15
:101ADC0001D10223C8E07B68012283F83C207B689B
:101AEC00022283F83D207B681B689B68FB60FB68C7
:101AFC0023F07703FB60FB6823F47F43FB607B6878
:101B0C001B68FA689A603B681B68402B77D0402BA7
:101B1C000ED8102B00F08A80102B02D8002B7ED010
:101B2C0099E0202B00F08980302B00F08D8092E022
:101B3C00702B16D0702B04D8502B40D0602B4ED06D
:101B4C0089E0B3F5805F03D0B3F5005F24D082E069
:101B5C007B681B687A681268926822F007029A60A8
:101B6C0079E07B6818683B6899683B685A683B6801
:101B7C00DB6800F08BF97B681B689B68FB60FB687B
:101B8C0023F07703FB60FB6843F07703FB607B6813
:101B9C001B68FA689A605EE07B6818683B68996815
:101BAC003B685A683B68DB6800F070F97B681B681F
:101BBC007A681268926842F480429A604BE07B68C3
:101BCC0018683B6859683B68DB681A4600F0DAF81D
:101BDC007B681B685021184600F039F93BE07B68A4
:101BEC0018683B6859683B68DB681A4600F0FCF8DB
:101BFC007B681B686021184600F029F92BE07B6894
:101C0C0018683B6859683B68DB681A4600F0BAF8FC
:101C1C007B681B684021184600F019F91BE07B68B3
:101C2C001B680021184600F012F914E07B681B6851
:101C3C001021184600F00BF90DE07B681B68202181
:101C4C00184600F004F906E07B681B683021184642
:101C5C0000F0FDF800BF7B68012283F83D207B6813
:101C6C00002283F83C20002318461037BD4680BD67
:101C7C0080B483B000AF786000BF0C37BD4680BC29
:101C8C00704780B483B000AF786000BF0C37BD469E
:101C9C0080BC704780B483B000AF786000BF0C3755
:101CAC00BD4680BC704780B483B000AF786000BF85
:101CBC000C37BD4680BC704780B485B000AF7860EF
:101CCC0039600023FB607B681B68FB607B682A4AD9
:101CDC0093420BD07B68B3F1804F07D07B68274AC7
:101CEC00934203D07B68264A934208D1FB6823F0C9
:101CFC007003FB603B685B68FA681343FB607B68AE
:101D0C001D4A93420BD07B68B3F1804F07D07B68A0
:101D1C001A4A934203D07B68194A934208D1FB6854
:101D2C0023F44073FB603B68DB68FA681343FB6089
:101D3C00FB6823F08003FB603B685B69FA68134324
:101D4C00FB607B68FA681A603B689A687B68DA62A9
:101D5C003B681A687B689A627B68074A934203D196
:101D6C003B681A697B681A637B6801225A6100BF61
:101D7C001437BD4680BC7047002C01400004004065
:101D8C000008004080B487B000AFF860B9607A609A
:101D9C0000237B6100233B61FB681B6A3B61FB6892
:101DAC001B6A23F00102FB681A62FB689B697B616A
:101DBC007B6923F0F0037B617B681B017A69134319
:101DCC007B613B6923F00A033B613A69BB681343AF
:101DDC003B61FB687A699A61FB683A691A6200BFD9
:101DEC001C37BD4680BC704780B487B000AFF8602C
:101DFC00B9607A6000237B6100233B61FB681B6A3E
:101E0C0023F01002FB681A62FB689B697B61FB681C
:101E1C001B6A3B617B6923F470437B617B681B030A
:101E2C007A6913437B613B6923F0A0033B61BB6878
:101E3C001B013A6913433B61FB687A699A61FB6841
:101E4C003A691A6200BF1C37BD4680BC704780B42B
:101E5C0085B000AF78600B467B800023FB607B680D
:101E6C009B68FB60FB6823F07003FB607B8843F08E
:101E7C0007039BB21A46FB681343FB607B68FA6846
:101E8C009A6000BF1437BD4680BC704780B487B0E1
:101E9C0000AFF860B9607A603B6000237B61FB683F
:101EAC009B687B617B6923F47F437B613B681A02EF
:101EBC007B681A43BB6813437A6913437B61FB68E5
:101ECC007A699A6000BF1C37BD4680BC704780B4ED
:101EDC0083B000AF786039607B6893F83C30012B9D
:101EEC0001D1022332E07B68012283F83C207B681D
:101EFC00022283F83D207B681B687A68126852685E
:101F0C0022F070025A607B681B687A68126851680C
:101F1C003A6812680A435A607B681B687A681268D0
:101F2C00926822F080029A607B681B687A6812685B
:101F3C0091683A6852680A439A607B68012283F878
:101F4C003D207B68002283F83C20002318460C3788
:101F5C00BD4680BC704780B483B000AF786000BFD2
:101F6C000C37BD4680BC704780B483B000AF78603E
:101F7C0000BF0C37BD4680BC704780B582B000AF47
:101F8C0078607B68002B01D101233FE07B6893F8DC
:101F9C003930DBB2002B06D17B68002283F8382065
:101FAC007868FEF72BFC7B68242283F839207B6849
:101FBC001B687A681268D26822F40052DA6078687A
:101FCC0000F05EFA7B681B687A681268126922F46A
:101FDC0090421A617B681B687A681268526922F019
:101FEC002A025A617B681B687A681268D26842F4CC
:101FFC000052DA607B680022DA637B68202283F867
:10200C0039207B68202283F83A20002318460837B1
:10201C00BD4680BD80B588B000AF78607B681B681A
:10202C001B68FB617B681B68DB68BB617B681B689A
:10203C005B697B6100233B610023FB60FB6903F060
:10204C000F033B613B69002B0DD1FB6903F02003AF
:10205C00002B08D0BB6903F02003002B03D0786859
:10206C0000F08CF9CCE03B69002B00F0AB807B6975
:10207C0003F00103002B05D1BB6903F49073002B13
:10208C0000F0A080FB6903F00103002B0AD0BB69B0
:10209C0003F48073002B05D07B68DB6B43F00102EB
:1020AC007B68DA63FB6903F00403002B0AD07B69BD
:1020BC0003F00103002B05D07B68DB6B43F00202BD
:1020CC007B68DA63FB6903F00203002B0AD07B699F
:1020DC0003F00103002B05D07B68DB6B43F004029B
:1020EC007B68DA63FB6903F00803002B0AD07B6979
:1020FC0003F00103002B05D07B68DB6B43F0080277
:10210C007B68DA637B68DB6B002B78D0FB6903F0B0
:10211C002003002B07D0BB6903F02003002B02D057
:10212C00786800F02BF97B681B685B6903F040034F
:10213C00002B14BF01230023DBB2FB607B68DB6B3D
:10214C0003F00803002B02D1FB68002B31D0786818
:10215C0000F077F87B681B685B6903F04003002B89
:10216C0023D07B681B687A681268526922F040029F
:10217C005A617B685B6B002B13D07B685B6B224ACC
:10218C005A637B685B6B1846FEF7F6FC0346002B24
:10219C0016D07B685B6B5B6B7A68526B104698470A
:1021AC000EE0786800F044F80AE0786800F040F837
:1021BC0006E0786800F03CF87B680022DA631EE0E9
:1021CC0000BF1CE0FB6903F08003002B08D0BB6947
:1021DC0003F08003002B03D0786800F063F80FE065
:1021EC00FB6903F04003002B0AD0BB6903F04003EA
:1021FC00002B05D0786800F0A9F800BF00E000BF04
:10220C002037BD4680BD00BF8922000880B483B052
:10221C0000AF786000BF0C37BD4680BC704780B4FF
:10222C0083B000AF786000BF0C37BD4680BC7047F0
:10223C0080B483B000AF786000BF0C37BD4680BC63
:10224C00704780B483B000AF78607B681B687A6895
:10225C001268D26822F49072DA607B681B687A6824
:10226C001268526922F001025A617B68202283F8BD
:10227C003A2000BF0C37BD4680BC704780B584B097
:10228C0000AF78607B685B6AFB60FB680022DA85D4
:10229C00FB680022DA84F868FFF7CAFF00BF10372A
:1022AC00BD4680BD80B485B000AF78607B6893F884
:1022BC003930DBB2212B43D17B689B68B3F5805F4F
:1022CC0019D17B681B6AFB607B681B68FA681288F3
:1022DC00C2F308025A607B681B69002B05D17B682E
:1022EC001B6A9A1C7B681A620EE07B681B6A5A1C7C
:1022FC007B681A6208E07B681A687B681B6A581C4A
:10230C00796808621B7853607B68DB8C9BB2013B5D
:10231C009BB27A681946D184002B0FD17B681B685D
:10232C007A681268D26822F08002DA607B681B68D7
:10233C007A681268D26842F04002DA60002300E04A
:10234C00022318461437BD4680BC704780B582B056
:10235C0000AF78607B681B687A681268D26822F0DC
:10236C004002DA607B68202283F839207868FFF716
:10237C004DFF002318460837BD4680BD80B584B09C
:10238C0000AF78607B6893F83A30DBB2222B71D1C6
:10239C007B689B68B3F5805F23D17B689B6AFB608D
:1023AC007B681B69002B0ED17B681B685B689BB23A
:1023BC00C3F308039AB2FB681A807B689B6A9A1C69
:1023CC007B689A6229E07B681B685B689BB2DBB216
:1023DC009AB2FB681A807B689B6A5A1C7B689A626B
:1023EC001BE07B681B69002B0AD17B689B6A591C1C
:1023FC007A6891627A6812685268D2B21A700CE0EC
:10240C007B689B6A591C7A6891627A681268526878
:10241C00D2B202F07F02D2B21A707B68DB8D9BB213
:10242C00013B9BB27A681946D185002B20D17B6881
:10243C001B687A681268D26822F02002DA607B6826
:10244C001B687A681268D26822F48072DA607B6842
:10245C001B687A681268526922F001025A617B6823
:10246C00202283F83A207868FFF7D9FE002302E097
:10247C00002300E0022318461037BD4680BD000043
:10248C00F0B585B000AF78600023FB607B681B68FB
:10249C007A681268126922F440517A68D2680A4349
:1024AC001A617B689A687B681B691A437B685B6955
:1024BC001343FA681343FB607B681A687B681B68DC
:1024CC00DB6823F4B05323F00C03F9680B43D3609F
:1024DC007B681B687A681268526922F440717A68CA
:1024EC0092690A435A617B681B686F4A93426BD1AD
:1024FC007B681C68FFF762F9024613469B00134485
:10250C009A001A447B685B689B00B2FBF3F3674A42
:10251C00A2FB03235B091D01FFF750F9024613468A
:10252C009B0013449A001A447B685B689B00B2FBC7
:10253C00F3F6FFF743F9024613469B0013449A0047
:10254C001A447B685B689B00B2FBF3F3574AA2FB0F
:10255C0003235B09642202FB03F3F31A1B013233DE
:10256C00524AA2FB03235B0903F0F0031D44FFF75F
:10257C0025F9024613469B0013449A001A447B68C3
:10258C005B689B00B2FBF3F6FFF718F902461346A3
:10259C009B0013449A001A447B685B689B00B2FB57
:1025AC00F3F3424AA2FB03235B09642202FB03F30D
:1025BC00F31A1B0132333D4AA2FB03235B0903F0E0
:1025CC000F032B44A3606AE07B681C68FFF7E2F8FA
:1025DC00024613469B0013449A001A447B685B68BE
:1025EC009B00B2FBF3F3314AA2FB03235B091D01F1
:1025FC00FFF7D0F8024613469B0013449A001A4486
:10260C007B685B689B00B2FBF3F6FFF7C3F80246EE
:10261C0013469B0013449A001A447B685B689B002A
:10262C00B2FBF3F3214AA2FB03235B09642202FBF6
:10263C0003F3F31A1B0132331C4AA2FB03235B097D
:10264C0003F0F0031D44FFF7A5F8024613469B0068
:10265C0013449A001A447B685B689B00B2FBF3F648
:10266C00FFF798F8024613469B0013449A001A444D
:10267C007B685B689B00B2FBF3F30C4AA2FB032361
:10268C005B09642202FB03F3F31A1B013233074A82
:10269C00A2FB03235B0903F00F032B44A36000BFD1
:1026AC001437BD46F0BD00BF003801401F85EB510B
:1026BC0080B483B000AF7860396000BF0C37BD4682
:1026CC0080BC704780B582B000AF78600D4B1B7832
:1026DC00092B05D93A210C48FFF7EAFF01230DE03D
:1026EC00084B1B781946094A7B6842F82130054B88
:1026FC001B780133DAB2034B1A70002318460837E3
:10270C00BD4680BD2C01002074290008B4010020B6
:10271C0080B582B000AF0023FB7127E0FB79184A2B
:10272C0052F823303B603B681B7A012B1BD13B6872
:10273C001B685A1C3B681A603B681A683B685B68EC
:10274C009A4210D33B685B68002B0CD03B68032289
:10275C001A723B6800221A603B68DB68002B02D0BF
:10276C003B68DB689847FB790133FB71054B1B78A1
:10277C00FA799A42D2D300BF0837BD4680BD00BF5C
:10278C00B40100202C01002080B582B000AF78602D
:10279C007868FFF797FF7B6800221A727B6800222B
:1027AC001A607B6800225A607B680022DA6000BFE6
:1027BC000837BD4680BD80B483B000AF7860396007
:1027CC007B683A685A607B6801221A7200BF0C372A
:1027DC00BD4680BC704780B483B000AF7860396070
:1027EC007B683A685A607B6801221A727B68002207
:1027FC001A6000BF0C37BD4680BC704780B483B0F4
:10280C0000AF78607B6800221A607B6800221A7225
:10281C0000BF0C37BD4680BC704780B483B000AF9E
:10282C0078607B681B6818460C37BD4680BC7047C7
:10283C0080B483B000AF78607B6802221A7200BF4C
:10284C000C37BD4680BC704780B483B000AF786055
:10285C007B681B7A032B01D1012300E0002318466F
:10286C000C37BD4680BC704780B483B000AF786035
:10287C0039607B683A68DA6000BF0C37BD4680BCB3
:10288C0070470000002103E00B4B5B5843500431B0
:10289C000A480B4B42189A42F6D30A4A02E000232C
:1028AC0042F8043B084B9A42F9D3FDF7D9FE00F0ED
:1028BC000FF8FDF72BFD7047E429000800000020FD
:1028CC00FC000020FC000020DC010020FEE70000E2
:1028DC0070B500250C4E0D4CA41BA410A54209D1BB
:1028EC0000F022F800250A4E0A4CA41BA410A542A5
:1028FC0005D170BD56F8253098470135EEE756F8EE
:10290C00253098470135F2E7DC290008DC2900085E
:10291C00DC290008E029000803460244934200D158
:10292C00704703F8011BF9E7F8B500BFF8BC08BC09
:10293C009E467047F8B500BFF8BC08BC9E46704771
:10294C002E2E5C436F72655C5372635C6D61696EB5
:10295C002E63000002030405060708090A0B0C0D80
:10296C000E0F1010010200002E2E5C636F6D6D6F48
:10297C006E5F73775F7061636B5C73775F6D6F64B1
:10298C00756C65735C73775F74696D65725C737776
:10299C005F74696D65722E6300000000000000001A
:1029AC0000000000010203040607080900000000F3
:1029BC0001020304C3270008E327000809280008C4
:1029CC00272800083D28000855280008752800080D
:0429DC0031010008BD
:0429E0000D010008DD
:1029E40063685F3000000000000000000000000089
:1029F400000C01400010000000080140010000002C
:102A040000000000000000000000000000000000C2
:102A14000000000010270000E504000863685F312F
:102A2400000000000000000000000000000C014055
:102A34000020000000080140020000000000000027
:102A44000000000000000000000000000000000082
:102A5400204E0000F904000863685F3200000000A3
:102A64000000000000000000000C014000400000D5
:102A74000008014004000000000000000000000005
:102A8400000000000000000000000000307500009D
:102A94000D05000863685F330000000000000000BB
:102AA40000000000000C014000800000000801400C
:102AB400080000000000000000000000000000000A
:102AC4000000000000000000409C000021050008F8
:0C2AD40000A24A041000000001000000F5
:040000050800289136
:00000001FF
