:020000040800F2
:1000000000500020112D0008310800083D080008AC
:1000100043080008490800084F08000800000000D5
:10002000000000000000000000000000550800086B
:1000300061080008000000006D0800087908000849
:10004000592D0008592D0008592D0008592D000878
:10005000592D0008592D0008592D0008592D000868
:10006000592D0008592D0008592D0008592D000858
:10007000592D0008592D0008592D0008592D000848
:10008000592D0008592D0008592D0008592D000838
:10009000592D0008592D0008592D00088508000821
:1000A000592D0008592D0008592D0008592D000818
:1000B000A9080008592D0008592D0008592D0008DD
:1000C000592D0008592D0008592D0008592D0008F8
:1000D000592D0008C9080008592D0008592D00089D
:1000E000592D0008592D0008592D00080000000066
:1000F0000000000000000000000000000000000000
:0C01000000000000000000005FF808F1A3
:10010C0010B5054C237833B9044B13B10448AFF345
:10011C0000800123237010BDFC00002000000000B3
:10012C00B42D000808B5034B1BB103490348AFF3CA
:10013C00008008BD0000000000010020B42D000864
:10014C00034613F8012B002AFBD1181A013870470B
:10015C0080B588B000AF07F1100300221A605A6016
:10016C009A60DA603E4A3E4B9B6943F01003936100
:10017C003B4B9B6903F01003FB60FB68384A384B20
:10018C009B6943F020039361354B9B6903F020037B
:10019C00BB60BB68324A324B9B6943F004039361EA
:1001AC002F4B9B6903F004037B607B682C4A2C4B20
:1001BC009B6943F008039361294B9B6903F0080387
:1001CC003B603B6800224FF40051264800F0FDFFD5
:1001DC0000220F21244800F0F8FF4FF400533B613C
:1001EC0011237B610023BB610223FB6107F1100328
:1001FC0019461C4800F078FE0F233B6101237B61FC
:10020C000023BB610223FB6107F11003194616485A
:10021C0000F06AFE4FF470433B6100237B610123C5
:10022C00BB6107F110031946104800F05DFE4FF456
:10023C0070733B610E4B7B610123BB6107F11003B3
:10024C0019460A4800F050FE00220021172000F049
:10025C0098FD172000F0B1FD00BF2037BD4680BDD2
:10026C00001002400010014000080140000C014049
:10027C000000211080B500AF034B1B6841F28831A0
:10028C000248984700BF80BD582E00083801002056
:10029C0080B500AF034B1B6842F2107102489847BF
:1002AC0000BF80BD582E00081801002080B582B018
:1002BC0000AF786000224FF40051064800F085FF33
:1002CC00054B1B6879680548984700BF0837BD4641
:1002DC0080BD00BF00100140582E000828010020EE
:1002EC0080B500AF01224FF40051024800F06DFFC1
:1002FC0000BF80BD0010014080B582B000AF7860B7
:10030C0002F046FC00BF0837BD4680BD80B584B006
:10031C0000AF0346FB80FB88802B0ED0802B02DCC9
:10032C00402B07D012E0B3F5807F09D0B3F5007FE6
:10033C0009D00BE0104BFB6010E0104BFB600DE0A4
:10034C000F4BFB600AE00F4BFB6007E00A4BFB60B6
:10035C0040F21D110C4802F009FB00BF0B4B1B684F
:10036C00FA6802F12400FA68526B1146984700BFF4
:10037C001037BD4680BD00BF000000203C000020AF
:10038C0078000020B4000020CC2D0008582E000866
:10039C0080B582B000AF0023BB7100F0BBFB4148BD
:1003AC0002F032FC404B9B6940493E4898473E4B1B
:1003BC001B6841F288313B4898473D4802F024FCC9
:1003CC00394B9B693B493A489847374B1B6842F27B
:1003DC00107137489847384802F016FC324B9B692D
:1003EC003649354898470423BB7100F07BF8FFF77A
:1003FC00AFFE00F011FB00F09FFA314801F075FBE5
:10040C00304802F001FC304802F0FEFB2F4802F0AD
:10041C00FBFB2F4802F0F8FB234B9B692D4A926B98
:10042C00114628489847204B9B692A4A526F11461F
:10043C00254898471C4B9B69264AD2F8B020114698
:10044C0022489847184B9B69224AD2F8EC20114657
:10045C001F48984701222049204801F02CFF00F04A
:10046C00B1FB02461E4B1B68D31A012BF7D9002394
:10047C00FB710CE0FA7913461B019B1A9B00154A81
:10048C001344184600F068F8FB790133FB71FA79D4
:10049C00BB799A42EED300F095FB0246104B1A60E2
:1004AC00DDE700BF38010020582E0008810200084B
:1004BC00180100209D02000828010020ED02000810
:1004CC007C01002024000020600000209C00002003
:1004DC00D80000200000002068010020BC01002092
:1004EC006C01002080B590B000AF07F118032822F2
:1004FC000021184602F050FC3B1D00221A605A6085
:10050C009A60DA601A610123BB614FF48033FB619E
:10051C0000237B6307F11803184600F09FFE034687
:10052C00002B01D000F046F90F237B600123BB6048
:10053C000023FB6000233B6100237B613B1D0021FA
:10054C00184601F00BF90346002B01D000F032F9EC
:10055C0000BF4037BD4680BD80B584B000AF786029
:10056C000023FB607B681A697B689B8A19461046DE
:10057C0000F014FE0346FB60FB68002B10D17B6877
:10058C0093F82030002B0BD17B68012283F82020BC
:10059C007B6898697B689B8B0122194600F015FEDD
:1005AC0000BF1037BD4680BD80B582B000AF084B90
:1005BC007B607B6898697B689B8B0022194600F0F6
:1005CC0004FE786800F024F800BF0837BD4680BDF3
:1005DC000000002080B500AF024800F019F800BF01
:1005EC0080BD00BF3C00002080B500AF024800F089
:1005FC000FF800BF80BD00BF7800002080B500AFB1
:10060C00024800F005F800BF80BD00BFB400002018
:10061C0080B582B000AF78607B6898697B689B8BF3
:10062C000022194600F0D1FD7B68002283F82020BF
:10063C0000BF0837BD4680BD80B586B000AF78607E
:10064C007B6801337B610023FB740023FB60002378
:10065C00BB747B691B78632B40D17B6901331B789E
:10066C002F2B3BD97B6901331B78332B36D87B6915
:10067C0001331B78303BFB747B69033307F10C02AD
:10068C001146184602F006FA0346002B26D1FA7CD6
:10069C00FB681846134913461B019B1A9B000B441D
:1006AC00343318604FF47A70FFF700FEFB680E4984
:1006BC00184602F077F90C48FFF742FD0346BB746D
:1006CC00BB7C0133BB74BB7C074A0A21D154BB7C75
:1006DC009BB21A460449054801F0A9FD00BF183722
:1006EC00BD4680BD0000002070010020BC01002030
:1006FC0080B582B000AF78602A4B1B78002B02D0FB
:10070C00012B11D044E0274B01221A70254BDB7FC3
:10071C005A1CD1B2234AD1771946224B93F8202088
:10072C00204B0B445A7033E01E4BDB7F1D2B0BD937
:10073C0016221D491D4801F07AFD1A4B0022DA776A
:10074C00184B00221A7023E0164B93F820300D2B17
:10075C0010D1144BDB7F1A46124B134400225A70F3
:10076C001048FFF769FF0F4B0022DA770D4B002280
:10077C001A700CE00B4BDB7F5A1CD1B2094AD177B3
:10078C001946084B93F82020064B0B445A7000BFB7
:10079C0001220749054801F08EFD00BF0837BD4610
:1007AC0080BD00BF48010020282E0008BC0100209D
:1007BC006801002080B400AF00BFBD4680BC70470C
:1007CC0080B485B000AF154A144B9B6943F001030C
:1007DC009361124B9B6903F00103BB60BB680F4A2A
:1007EC000E4BDB6943F08053D3610C4BDB6903F098
:1007FC0080537B607B680A4B5B68FB60FB6823F073
:10080C00E063FB60FB6843F00073FB60044AFB6829
:10081C00536000BF1437BD4680BC704700100240C7
:10082C000000014080B400AF00BFBD4680BC7047E3
:10083C0080B400AFFEE780B400AFFEE780B400AF39
:10084C00FEE780B400AFFEE780B400AF00BFBD464A
:10085C0080BC704780B400AF00BFBD4680BC704701
:10086C0080B400AF00BFBD4680BC704780B500AF00
:10087C0000F096F900BF80BD80B500AF402000F0BD
:10088C00D5FC802000F0D2FC4FF4807000F0CEFC40
:10089C004FF4007000F0CAFC00BF80BD80B500AF03
:1008AC000121044800F0A9FC034801F041F900BF04
:1008BC0080BD00BF000801407C01002080B500AF66
:1008CC00024801F04DFD00BF80BD00BFBC010020FF
:1008DC0080B400AF154A154B1B6843F0010313603D
:1008EC001249124B5A68124B13404B600F4A0F4B74
:1008FC001B6823F0847323F4803313600B4A0B4B77
:10090C001B6823F480231360084A084B5B6823F4AC
:10091C00FE035360054B4FF41F029A60054B4FF0DA
:10092C0000629A6000BFBD4680BC70470010024058
:10093C000000FFF800ED00E080B586B000AF07F1D5
:10094C00080300221A605A609A60DA603B46002263
:10095C001A605A601D4B4FF080421A601B4B0722E5
:10096C005A601A4B00229A60184B6322DA60174BBC
:10097C0000221A61154B80229A61144801F08AF802
:10098C000346002B01D0FFF715FF4FF48053BB60DB
:10099C0007F1080319460D4801F0D2F90346002B64
:1009AC0001D0FFF707FF00233B6000237B603B4631
:1009BC001946064801F098FB0346002B01D0FFF7BF
:1009CC00F9FE00BF1837BD4680BD00BF7C0100207A
:1009DC0080B584B000AF78607B681B68B3F1804F42
:1009EC0013D10C4A0B4BDB6943F00103D361094B68
:1009FC00DB6903F00103FB60FB68002200211C2073
:100A0C0000F0BFF91C2000F0D8F900BF1037BD462C
:100A1C0080BD00BF0010024080B500AF114B124AE0
:100A2C001A60104B4FF4E1325A600E4B00229A6060
:100A3C000C4B0022DA600B4B00221A61094B0C2282
:100A4C005A61084B00229A61064B0022DA61054874
:100A5C0001F0A0FB0346002B01D0FFF7ABFE00BF5B
:100A6C0080BD00BFBC0100200038014080B588B0BB
:100A7C0000AF786007F1100300221A605A609A6088
:100A8C00DA607B681B68204A934239D11F4A1F4B9E
:100A9C009B6943F4804393611C4B9B6903F4804333
:100AAC00FB60FB68194A194B9B6943F00403936183
:100ABC00164B9B6903F00403BB60BB684FF40073D7
:100ACC003B6102237B610323FB6107F11003194691
:100ADC000F4800F009FA4FF480633B6100237B61FF
:100AEC000023BB6107F110031946094800F0FCF91B
:100AFC0000220021252000F044F9252000F05DF9AA
:100B0C0000BF2037BD4680BD0038014000100240B8
:100B1C000008014080B500AF084A084B1B6843F041
:100B2C0010031360032000F021F9002000F008F8F6
:100B3C00FFF746FE0023184680BD00BF0020024090
:100B4C0080B582B000AF7860124B1A68124B1B78DC
:100B5C0019464FF47A73B3FBF1F3B2FBF3F3184677
:100B6C0000F039F90346002B01D001230EE07B681D
:100B7C000F2B0AD8002279684FF0FF3000F001F9F2
:100B8C00064A7B681360002300E0012318460837EF
:100B9C00BD4680BDF0000020F8000020F4000020CD
:100BAC0080B400AF054B1B781A46054B1B681344E9
:100BBC00034A136000BFBD4680BC7047F80000209C
:100BCC00FC01002080B400AF024B1B681846BD46E8
:100BDC0080BC7047FC01002080B485B000AF786009
:100BEC007B6803F00703FB600C4BDB68BB60BA68E7
:100BFC004FF6FF031340BB60FB681A02BB6813433C
:100C0C0043F0BF6343F40033BB60044ABB68D3605A
:100C1C0000BF1437BD4680BC704700BF00ED00E03C
:100C2C0080B400AF044BDB681B0A03F007031846C3
:100C3C00BD4680BC704700BF00ED00E080B483B0BF
:100C4C0000AF0346FB7197F90730002B0BDB08490B
:100C5C0097F907305B09FA7902F01F02012000FABC
:100C6C0002F241F8232000BF0C37BD4680BC704710
:100C7C0000E100E080B483B000AF03463960FB7143
:100C8C0097F90730002B0ADB0D4997F907303A68C2
:100C9C00D2B21201D2B20B4483F800230AE0094904
:100CAC00FB7903F00F03043B3A68D2B21201D2B2C3
:100CBC000B441A7600BF0C37BD4680BC704700BF92
:100CCC0000E100E000ED00E080B489B000AFF86016
:100CDC00B9607A60FB6803F00703FB61FB69C3F141
:100CEC000703042B28BF0423BB61FB690433062BC9
:100CFC0002D9FB69033B00E000237B610122BB6945
:100D0C0002FA03F35A1EBB681A407B699A40012110
:100D1C007B6901FA03F3591E7B680B401343184699
:100D2C002437BD4680BC704780B582B000AF786078
:100D3C007B68013BB3F1807F01D301230FE00A4AAA
:100D4C007B68013B53600F214FF0FF30FFF792FFA0
:100D5C00054B00229A60044B07221A6000231846A8
:100D6C000837BD4680BD00BF10E000E080B582B002
:100D7C0000AF78607868FFF72FFF00BF0837BD46DB
:100D8C0080BD80B586B000AF0346B9607A60FB7356
:100D9C0000237B61FFF744FF78617A68B968786952
:100DAC00FFF792FF024697F90F3011461846FFF7EE
:100DBC0061FF00BF1837BD4680BD80B582B000AF63
:100DCC000346FB7197F907301846FFF737FF00BF52
:100DDC000837BD4680BD80B582B000AF78607868BA
:100DEC00FFF7A2FF034618460837BD4680BD00003A
:100DFC0080B584B000AF78600023FB737B6893F8F8
:100E0C002130022B05D07B6804229A630123FB73EB
:100E1C0057E07B681B687A681268126822F00E0231
:100E2C001A607B681B687A681268126822F00102EB
:100E3C001A60264A7B681B681946254B99422ED0AE
:100E4C007B681B681946234B994226D07B681B682C
:100E5C001946214B99421DD07B681B6819461F4BC4
:100E6C00994214D07B681B6819461D4B99420BD0D4
:100E7C007B681B6819461B4B994202D14FF48013B7
:100E8C000EE04FF080730BE04FF4803308E04FF42A
:100E9C00805305E04FF4807302E0102300E001233F
:100EAC0053607B68012283F821207B68002283F841
:100EBC0020207B685B6B002B03D07B685B6B7868B6
:100ECC009847FB7B18461037BD4680BD000002409A
:100EDC00080002401C000240300002404400024066
:100EEC00580002406C00024080B48BB000AF7860B8
:100EFC00396000237B6200233B6227E101227B6A7D
:100F0C0002FA03F3FB613B681A68FB691340BB618F
:100F1C00BA69FB699A4240F016813B685B68122BF8
:100F2C0034D0122B0DD8022B2BD0022B04D8002B33
:100F3C0031D0012B1CD048E0032B43D0112B1BD0FC
:100F4C0043E0894A934226D0874A934206D8874A7F
:100F5C00934220D0864A93421DD036E0854A934274
:100F6C0019D0854A934216D0844A934213D02CE070
:100F7C003B68DB683B6228E03B68DB6804333B6220
:100F8C0023E03B68DB6808333B621EE03B68DB68B0
:100F9C000C333B6219E03B689B68002B02D10423A5
:100FAC003B6212E03B689B68012B05D108233B6236
:100FBC007B68FA691A6108E008233B627B68FA696E
:100FCC005A6102E000233B6200BFBB69FF2B01D8D2
:100FDC007B6801E07B6804337B61BB69FF2B02D823
:100FEC007B6A9B0002E07B6A083B9B003B617B6950
:100FFC001A680F213B6901FA03F3DB431A40396A83
:10100C003B6901FA03F31A437B691A603B685B681E
:10101C0003F08053002B00F09680594A584B9B6983
:10102C0043F001039361564B9B6903F00103BB60D2
:10103C00BB68544A7B6A9B08023352F82330FB602E
:10104C007B6A03F003039B000F2202FA03F3DB43DA
:10105C00FA681340FB607B684B4A934213D07B6861
:10106C004A4A93420DD07B68494A934207D07B6829
:10107C00484A934201D1032306E0042304E00223EF
:10108C0002E0012300E000237A6A02F003029200DE
:10109C009340FA681343FB603A497B6A9B0802331E
:1010AC00FA6841F823203B685B6803F48033002B1B
:1010BC0006D03949384B1A68BB6913430B6006E0FC
:1010CC003549354B1A68BB69DB4313400B603B68F1
:1010DC005B6803F40033002B06D02F492E4B5A6863
:1010EC00BB6913434B6006E02B492B4B5A68BB6919
:1010FC00DB4313404B603B685B6803F48013002BAD
:10110C0006D02549244B9A68BB6913438B6006E0D3
:10111C002149214B9A68BB69DB4313408B603B68C8
:10112C005B6803F40013002B06D01B491A4BDA68DA
:10113C00BB691343CB6006E01749174BDA68BB69F0
:10114C00DB431340CB607B6A01337B623B681A68DC
:10115C007B6A22FA03F3002B7FF4D0AE00BF2C374E
:10116C00BD4680BC704700BF00002110000011106C
:10117C00000012100000311000003210000022108C
:10118C00001002400000014000080140000C01402A
:10119C0000100140001401400004014080B485B0EF
:1011AC0000AF78600B467B807B689A687B88134025
:1011BC00002B02D00123FB7301E00023FB73FB7BAC
:1011CC0018461437BD4680BC704780B483B000AF5E
:1011DC0078600B467B8013467B707B78002B03D0AA
:1011EC007A887B681A6103E07B881A047B681A6131
:1011FC0000BF0C37BD4680BC704780B483B000AFD5
:10120C0078600B467B807B68DA687B881340002B08
:10121C0003D07A887B685A6102E07A887B681A610D
:10122C0000BF0C37BD4680BC7047000080B582B053
:10123C0000AF0346FB80084B5A69FB881340002B18
:10124C0006D0054AFB885361FB881846FFF75EF809
:10125C0000BF0837BD4680BD0004014080B586B094
:10126C0000AF78607B68002B01D101236CE27B68B6
:10127C001B6803F00103002B00F08780924B5B6826
:10128C0003F00C03042B0CD08F4B5B6803F00C03A6
:10129C00082B12D18C4B5B6803F48033B3F5803F81
:1012AC000BD1894B1B6803F40033002B6CD07B688B
:1012BC005B68002B68D1012346E27B685B68B3F561
:1012CC00803F06D1804A804B1B6843F48033136007
:1012DC002EE07B685B68002B0CD17B4A7A4B1B6839
:1012EC0023F480331360784A774B1B6823F48023F4
:1012FC0013601DE07B685B68B3F5A02F0CD1724ABC
:10130C00714B1B6843F4802313606F4A6E4B1B6850
:10131C0043F4803313600BE06B4A6B4B1B6823F474
:10132C0080331360684A684B1B6823F48023136076
:10133C007B685B68002B13D0FFF744FC386108E036
:10134C00FFF740FC02463B69D31A642B01D90323F7
:10135C00FAE15D4B1B6803F40033002BF0D014E072
:10136C00FFF730FC386108E0FFF72CFC02463B69C4
:10137C00D31A642B01D90323E6E1534B1B6803F406
:10138C000033002BF0D100E000BF7B681B6803F03A
:10139C000203002B63D04C4B5B6803F00C03002B57
:1013AC000BD0494B5B6803F00C03082B1CD1464B4C
:1013BC005B6803F48033002B16D1434B1B6803F09E
:1013CC000203002B05D07B681B69012B01D0012384
:1013DC00BAE13D493C4B1B6823F0F8027B685B6922
:1013EC00DB0013430B603AE07B681B69002B20D0B9
:1013FC00364B01221A60FFF7E5FB386108E0FFF776
:10140C00E1FB02463B69D31A022B01D903239BE172
:10141C002D4B1B6803F00203002BF0D02A492A4BFA
:10142C001B6823F0F8027B685B69DB0013430B60DD
:10143C0015E0264B00221A60FFF7C4FB386108E068
:10144C00FFF7C0FB02463B69D31A022B01D90323D9
:10145C007AE11D4B1B6803F00203002BF0D17B6873
:10146C001B6803F00803002B3AD07B689B69002BA8
:10147C0019D0174B01221A60FFF7A4FB386108E062
:10148C00FFF7A0FB02463B69D31A022B01D90323B9
:10149C005AE10D4B5B6A03F00203002BF0D00120E4
:1014AC0000F0DAFA1CE00A4B00221A60FFF78AFB04
:1014BC0038610FE0FFF786FB02463B69D31A022B1B
:1014CC0008D9032340E100BF001002400000424253
:1014DC00800442429E4B5B6A03F00203002BE9D16D
:1014EC007B681B6803F00403002B00F0A68000232C
:1014FC00FB75974BDB6903F08053002B0DD1944A9D
:10150C00934BDB6943F08053D361914BDB6903F060
:10151C008053BB60BB680123FB758E4B1B6803F4C7
:10152C008073002B18D18B4A8A4B1B6843F4807351
:10153C001360FFF747FB386108E0FFF743FB0246F7
:10154C003B69D31A642B01D90323FDE0814B1B6843
:10155C0003F48073002BF0D07B68DB68012B06D181
:10156C007B4A7B4B1B6A43F0010313622DE07B68C3
:10157C00DB68002B0CD1764A754B1B6A23F00103F8
:10158C001362734A724B1B6A23F0040313621CE050
:10159C007B68DB68052B0CD16D4A6D4B1B6A43F0E5
:1015AC00040313626A4A6A4B1B6A43F00103136219
:1015BC000BE0674A664B1B6A23F001031362644A13
:1015CC00634B1B6A23F0040313627B68DB68002BFC
:1015DC0015D0FFF7F7FA38610AE0FFF7F3FA024685
:1015EC003B69D31A41F28832934201D90323ABE011
:1015FC00574B1B6A03F00203002BEED014E0FFF7ED
:10160C00E1FA38610AE0FFF7DDFA02463B69D31ACA
:10161C0041F28832934201D9032395E04C4B1B6A6B
:10162C0003F00203002BEED1FB7D012B05D1484AC0
:10163C00474BDB6923F08053D3617B68DB69002B5C
:10164C0000F08180424B5B6803F00C03082B61D0E7
:10165C007B68DB69022B46D13F4B00221A60FFF7F7
:10166C00B1FA386108E0FFF7ADFA02463B69D31ACC
:10167C00022B01D9032367E0354B1B6803F0007381
:10168C00002BF0D17B681B6AB3F5803F08D1304941
:10169C002F4B5B6823F400327B689B6813434B60D1
:1016AC002B482B4B5B6823F474127B68196A7B689C
:1016BC005B6A0B4313434360274B01221A60FFF70D
:1016CC0081FA386108E0FFF77DFA02463B69D31ACC
:1016DC00022B01D9032337E01D4B1B6803F0007369
:1016EC00002BF0D02FE01C4B00221A60FFF76AFA97
:1016FC00386108E0FFF766FA02463B69D31A022B01
:10170C0001D9032320E0124B1B6803F00073002B5C
:10171C00F0D118E07B68DB69012B01D1012313E0C8
:10172C000B4B5B68FB60FB6803F480327B681B6AC5
:10173C009A4206D1FB6803F470127B685B6A9A428A
:10174C0001D0012300E0002318461837BD4680BDA8
:10175C0000100240007000406000424280B584B02E
:10176C0000AF786039607B68002B01D10123D0E099
:10177C006A4B1B6803F007023B689A4210D2674918
:10178C00664B1B6823F007023B6813430B60634BEB
:10179C001B6803F007023B689A4201D00123B8E0B2
:1017AC007B681B6803F00203002B20D07B681B684E
:1017BC0003F00403002B05D0594A594B5B6843F4E2
:1017CC00E06353607B681B6803F00803002B05D0B3
:1017DC00534A534B5B6843F4605353605049504B2E
:1017EC005B6823F0F0027B689B6813434B607B685B
:1017FC001B6803F00103002B40D07B685B68012B56
:10180C0007D1474B1B6803F40033002B15D1012380
:10181C007FE07B685B68022B07D1414B1B6803F0B0
:10182C000073002B09D1012373E03D4B1B6803F0BF
:10183C000203002B01D101236BE03949384B5B6863
:10184C0023F003027B685B6813434B60FFF7BAF924
:10185C00F8600AE0FFF7B6F90246FB68D31A41F2CA
:10186C008832934201D9032353E02D4B5B6803F07C
:10187C000C027B685B689B009A42EBD1274B1B6880
:10188C0003F007023B689A4210D92449234B1B688A
:10189C0023F007023B6813430B60204B1B6803F0DB
:1018AC0007023B689A4201D0012332E07B681B6837
:1018BC0003F00403002B08D01949194B5B6823F47F
:1018CC00E0627B68DB6813434B607B681B6803F04A
:1018DC000803002B09D01249114B5B6823F46052AA
:1018EC007B681B69DB0013434B6000F021F8014659
:1018FC000B4B5B681B0903F00F030A4AD35C21FAFC
:10190C0003F3094A1360094B1B681846FFF718F9D3
:10191C00002318461037BD4680BD00BF0020024092
:10192C0000100240402E0008F0000020F4000020BF
:10193C0090B48AB000AF2A4B3C1D0FCB84E80F004B
:10194C00284B1B883B800023FB610023BB610023D9
:10195C007B6200237B6100233B62234B5B68FB6152
:10196C00FB6903F00C03042B02D0082B03D02DE0F1
:10197C001E4B3B622DE0FB699B0C03F00F0307F140
:10198C002802134413F8243C7B61FB6903F4803375
:10199C00002B13D0144B5B685B0C03F0010307F1B5
:1019AC002802134413F8283CBB617B690F4A02FBE5
:1019BC0003F2BB69B2FBF3F37B6204E07B690C4A74
:1019CC0002FB03F37B627B6A3B6202E0074B3B62E8
:1019DC0000BF3B6A18462837BD4690BC704700BF15
:1019EC00E02D0008F02D00080010024000127A00D3
:1019FC0000093D0080B400AF024B1B681846BD4681
:101A0C0080BC7047F000002080B500AFFFF7F2FFFC
:101A1C000146054B5B681B0A03F00703034AD35CC2
:101A2C0021FA03F3184680BD00100240502E000826
:101A3C0080B500AFFFF7DEFF0146054B5B68DB0AA4
:101A4C0003F00703034AD35C21FA03F3184680BD65
:101A5C0000100240502E000880B485B000AF7860B2
:101A6C000A4B1B680A4AA2FB03235B0A7A6802FB37
:101A7C0003F3FB6000BFFB685A1EFA60002BF9D120
:101A8C0000BF1437BD4680BC704700BFF00000207B
:101A9C00D34D621080B582B000AF78607B68002BAC
:101AAC0001D101231DE07B6893F83D30DBB2002BA4
:101ABC0006D17B68002283F83C207868FEF788FF0B
:101ACC007B68022283F83D207B681A687B680433AC
:101ADC001946104600F010FA7B68012283F83D206D
:101AEC00002318460837BD4680BD80B485B000AFD2
:101AFC0078607B681B687A681268D26842F00102D1
:101B0C00DA607B681B689B6803F00703FB60FB686B
:101B1C00062B07D07B681B687A681268126842F043
:101B2C0001021A60002318461437BD4680BC70476A
:101B3C0080B582B000AF78607B681B681B6903F0CE
:101B4C000203022B22D17B681B68DB6803F00203C3
:101B5C00022B1BD17B681B686FF002021A617B6839
:101B6C0001221A777B681B689B6903F00303002B27
:101B7C0003D0786800F0A4F905E0786800F097F9D4
:101B8C00786800F0A6F97B6800221A777B681B68DE
:101B9C001B6903F00403042B22D17B681B68DB68F0
:101BAC0003F00403042B1BD17B681B686FF0040249
:101BBC001A617B6802221A777B681B689B6903F4A5
:101BCC004073002B03D0786800F07AF905E0786850
:101BDC0000F06DF9786800F07CF97B6800221A77C8
:101BEC007B681B681B6903F00803082B22D17B68F8
:101BFC001B68DB6803F00803082B1BD17B681B6890
:101C0C006FF008021A617B6804221A777B681B68E4
:101C1C00DB6903F00303002B03D0786800F050F964
:101C2C0005E0786800F043F9786800F052F97B68B9
:101C3C0000221A777B681B681B6903F01003102BBA
:101C4C0022D17B681B68DB6803F01003102B1BD1BF
:101C5C007B681B686FF010021A617B6808221A7788
:101C6C007B681B68DB6903F44073002B03D0786836
:101C7C0000F026F905E0786800F019F9786800F0B2
:101C8C0028F97B6800221A777B681B681B6903F0B4
:101C9C000103012B0ED17B681B68DB6803F0010389
:101CAC00012B07D17B681B686FF001021A61786801
:101CBC00FEF722FB7B681B681B6903F08003802BFB
:101CCC000ED17B681B68DB6803F08003802B07D187
:101CDC007B681B686FF080021A61786800F051FA1B
:101CEC007B681B681B6903F04003402B0ED17B689B
:101CFC001B68DB6803F04003402B07D17B681B6833
:101D0C006FF040021A61786800F0ECF87B681B6891
:101D1C001B6903F02003202B0ED17B681B68DB684A
:101D2C0003F02003202B07D17B681B686FF0200287
:101D3C001A61786800F01CFA00BF0837BD4680BDF8
:101D4C0080B584B000AF786039607B6893F83C3024
:101D5C00012B01D10223A6E07B68012283F83C20F1
:101D6C007B68022283F83D207B681B689B68FB60C4
:101D7C00FB6823F07703FB60FB6823F47F43FB6075
:101D8C007B681B68FA689A603B681B68402B67D0BD
:101D9C00402B0BD8102B73D0102B02D8002B6FD0EC
:101DAC0078E0202B6CD0302B6AD073E0702B0DD0E8
:101DBC00702B04D8502B33D0602B41D06AE0B3F594
:101DCC00805F66D0B3F5005F17D063E07B6818685E
:101DDC003B6899683B685A683B68DB6800F065F9BA
:101DEC007B681B689B68FB60FB6843F07703FB60B8
:101DFC007B681B68FA689A604CE07B6818683B68E3
:101E0C0099683B685A683B68DB6800F04EF97B6860
:101E1C001B687A681268926842F480429A6039E0D2
:101E2C007B6818683B6859683B68DB681A4600F0A9
:101E3C00C5F87B681B685021184600F01CF929E096
:101E4C007B6818683B6859683B68DB681A4600F089
:101E5C00E3F87B681B686021184600F00CF919E068
:101E6C007B6818683B6859683B68DB681A4600F069
:101E7C00A5F87B681B684021184600F0FCF809E0C7
:101E8C007B681A683B681B681946104600F0F3F82B
:101E9C0000E000BF7B68012283F83D207B680022B4
:101EAC0083F83C20002318461037BD4680BD80B413
:101EBC0083B000AF786000BF0C37BD4680BC704764
:101ECC0080B483B000AF786000BF0C37BD4680BCD7
:101EDC00704780B483B000AF786000BF0C37BD464C
:101EEC0080BC704780B483B000AF786000BF0C3703
:101EFC00BD4680BC7047000080B485B000AF7860F0
:101F0C0039607B681B68FB607B68294A93420BD065
:101F1C007B68B3F1804F07D07B68264A934203D08D
:101F2C007B68254A934208D1FB6823F07003FB6061
:101F3C003B685B68FA681343FB607B681C4A9342FE
:101F4C000BD07B68B3F1804F07D07B68194A934262
:101F5C0003D07B68184A934208D1FB6823F4407382
:101F6C00FB603B68DB68FA681343FB60FB6823F09B
:101F7C0080023B685B691343FB607B68FA681A60FC
:101F8C003B689A687B68DA623B681A687B689A627D
:101F9C007B68074A934203D13B681A697B681A63D2
:101FAC007B6801225A6100BF1437BD4680BC704764
:101FBC00002C0140000400400008004080B487B0B1
:101FCC0000AFF860B9607A60FB681B6A7B61FB68E4
:101FDC001B6A23F00102FB681A62FB689B693B6178
:101FEC003B6923F0F0033B617B681B013A691343A7
:101FFC003B617B6923F00A037B617A69BB681343FD
:10200C007B61FB683A699A61FB687A691A6200BF66
:10201C001C37BD4680BC704780B487B000AFF860F9
:10202C00B9607A60FB681B6A23F01002FB681A62C5
:10203C00FB689B697B61FB681B6A3B617B6923F4D2
:10204C0070437B617B681B037A6913437B613B693B
:10205C0023F0A0033B61BB681B013A6913433B614E
:10206C00FB687A699A61FB683A691A6200BF1C378F
:10207C00BD4680BC704780B485B000AF78603960D5
:10208C007B689B68FB60FB6823F07003FB603A681D
:10209C00FB68134343F00703FB607B68FA689A60A4
:1020AC0000BF1437BD4680BC704780B487B000AF0A
:1020BC00F860B9607A603B60FB689B687B617B6908
:1020CC0023F47F437B613B681A027B681A43BB682D
:1020DC0013437A6913437B61FB687A699A6000BF8A
:1020EC001C37BD4680BC704780B485B000AF7860AB
:1020FC0039607B6893F83C30012B01D1022332E02C
:10210C007B68012283F83C207B68022283F83D2007
:10211C007B681B685B68FB607B681B689B68BB60AB
:10212C00FB6823F07003FB603B681B68FA68134381
:10213C00FB60BB6823F08003BB603B685B68BA68DC
:10214C001343BB607B681B68FA685A607B681B682A
:10215C00BA689A607B68012283F83D207B68002274
:10216C0083F83C20002318461437BD4680BC7047CA
:10217C0080B483B000AF786000BF0C37BD4680BC24
:10218C00704780B483B000AF786000BF0C37BD4699
:10219C0080BC704780B582B000AF78607B68002B44
:1021AC0001D101233FE07B6893F83930DBB2002B7F
:1021BC0006D17B68002283F838207868FEF756FC3D
:1021CC007B68242283F839207B681B687A68126844
:1021DC00D26822F40052DA60786800F0EDFA7B687D
:1021EC001B687A681268126922F490421A617B6843
:1021FC001B687A681268526922F02A025A617B685D
:10220C001B687A681268D26842F40052DA607B6804
:10221C000022DA637B68202283F839207B68202235
:10222C0083F83A20002318460837BD4680BD80B499
:10223C0085B000AFF860B9601346FB80FB6893F87B
:10224C003930DBB2202B30D1BB68002B02D0FB889D
:10225C00002B01D1012329E0FB6893F83830012BC6
:10226C0001D1022322E0FB68012283F83820FB68AD
:10227C00BA681A62FB68FA889A84FB68FA88DA846E
:10228C00FB680022DA63FB68212283F83920FB68A3
:10229C00002283F83820FB681B68FA681268D26841
:1022AC0042F08002DA60002300E002231846143763
:1022BC00BD4680BC704780B485B000AFF860B96093
:1022CC001346FB80FB6893F83A30DBB2202B40D1ED
:1022DC00BB68002B02D0FB88002B01D1012339E015
:1022EC00FB6893F83830012B01D1022332E0FB68F4
:1022FC00012283F83820FB68BA689A62FB68FA8876
:10230C009A85FB68FA88DA85FB680022DA63FB6839
:10231C00222283F83A20FB68002283F83820FB68DD
:10232C001B68FA681268D26842F48072DA60FB6843
:10233C001B68FA681268526942F001025A61FB6824
:10234C001B68FA681268D26842F02002DA60002337
:10235C0000E0022318461437BD4680BC70470000CD
:10236C0080B588B000AF78607B681B681B68FB6128
:10237C007B681B68DB68BB617B681B685B697B6186
:10238C0000233B610023FB60FB6903F00F033B61FF
:10239C003B69002B0DD1FB6903F02003002B08D007
:1023AC00BB6903F02003002B03D0786800F083F99D
:1023BC00CCE03B69002B00F0AB807B6903F00103A0
:1023CC00002B05D1BB6903F49073002B00F0A080A7
:1023DC00FB6903F00103002B0AD0BB6903F4807383
:1023EC00002B05D07B68DB6B43F001027B68DA6362
:1023FC00FB6903F00403002B0AD07B6903F0010393
:10240C00002B05D07B68DB6B43F002027B68DA6340
:10241C00FB6903F00203002B0AD07B6903F0010374
:10242C00002B05D07B68DB6B43F004027B68DA631E
:10243C00FB6903F00803002B0AD07B6903F001034E
:10244C00002B05D07B68DB6B43F008027B68DA63FA
:10245C007B68DB6B002B78D0FB6903F02003002B2F
:10246C0007D0BB6903F02003002B02D0786800F082
:10247C0022F97B681B685B6903F04003002B14BFD7
:10248C0001230023DBB2FB607B68DB6B03F00803EA
:10249C00002B02D1FB68002B31D0786800F06EF86D
:1024AC007B681B685B6903F04003002B23D07B68BF
:1024BC001B687A681268526922F040025A617B6884
:1024CC005B6B002B13D07B685B6B224A5A637B6877
:1024DC005B6B1846FEF78CFC0346002B16D07B6812
:1024EC005B6B5B6B7A68526B104698470EE07868B2
:1024FC0000F03BF80AE0786800F037F806E07868FE
:10250C0000F033F87B680022DA631EE000BF1CE0A9
:10251C00FB6903F08003002B08D0BB6903F0800338
:10252C00002B03D0786800F05AF80FE0FB6903F039
:10253C004003002B0AD0BB6903F04003002B05D0ED
:10254C00786800F0A0F800BF00E000BF2037BD465F
:10255C0080BD00BFC325000880B483B000AF786095
:10256C0000BF0C37BD4680BC704780B483B000AF51
:10257C00786000BF0C37BD4680BC704780B483B018
:10258C0000AF78607B681B687A681268D26822F4A6
:10259C009072DA607B681B687A681268526922F064
:1025AC0001025A617B68202283F83A2000BF0C3765
:1025BC00BD4680BC704780B584B000AF78607B6846
:1025CC005B6AFB60FB680022DA85FB680022DA8418
:1025DC00F868FFF7CAFF00BF1037BD4680BD80B456
:1025EC0085B000AF78607B6893F83930DBB2212B73
:1025FC0043D17B689B68B3F5805F19D17B681B6AFC
:10260C00FB607B681B68FA681288C2F308025A6088
:10261C007B681B69002B05D17B681B6A9A1C7B6845
:10262C001A620EE07B681B6A5A1C7B681A6208E00F
:10263C007B681A687B681B6A581C796808621B786F
:10264C0053607B68DB8C9BB2013B9BB27A6819466A
:10265C00D184002B0FD17B681B687A681268D26812
:10266C0022F08002DA607B681B687A681268D26894
:10267C0042F04002DA60002300E0022318461437CF
:10268C00BD4680BC704780B582B000AF78607B6877
:10269C001B687A681268D26822F04002DA607B68A4
:1026AC00202283F839207868FFF756FF002318465C
:1026BC000837BD4680BD80B584B000AF78607B68BC
:1026CC0093F83A30DBB2222B71D17B689B68B3F55F
:1026DC00805F23D17B689B6AFB607B681B69002B46
:1026EC000ED17B681B685B689BB2C3F308039AB27C
:1026FC00FB681A807B689B6A9A1C7B689A6229E04B
:10270C007B681B685B689BB2DBB29AB2FB681A8071
:10271C007B689B6A5A1C7B689A621BE07B681B690E
:10272C00002B0AD17B689B6A591C7A6891627A6883
:10273C0012685268D2B21A700CE07B689B6A591C02
:10274C007A6891627A6812685268D2B202F07F029B
:10275C00D2B21A707B68DB8D9BB2013B9BB27A685C
:10276C001946D185002B20D17B681B687A681268CA
:10277C00D26822F02002DA607B681B687A681268E3
:10278C00D26822F48072DA607B681B687A681268FF
:10279C00526922F001025A617B68202283F83A20A8
:1027AC007868FDF7A5FF002302E0002300E0022378
:1027BC0018461037BD4680BD90B585B000AF786027
:1027CC007B681B687A681268126922F440517A6837
:1027DC00D2680A431A617B689A687B681B691A4342
:1027EC007B685B691343FB607B681A687B681B68BA
:1027FC00DB6823F4B05323F00C03F9680B43D3606C
:10280C007B681B687A681268526922F440717A6896
:10281C0092690A435A617B681B68524A93424ED1B3
:10282C00FFF706F9B8607B681968BA6813469B0015
:10283C0013449A001A447B685B689B00B2FBF3F369
:10284C00494AA2FB03235B091801BA6813469B0093
:10285C0013449A001A447B685B689B00B2FBF3F24A
:10286C00414BA3FB02435B09642404FB03F3D31A1F
:10287C001B0132333C4AA2FB03235B0903F0F00338
:10288C001844BA6813469B0013449A001A447B6898
:10289C005B689B00B2FBF3F2334BA3FB02435B0977
:1028AC00642404FB03F3D31A1B0132332E4AA2FB1C
:1028BC0003235B0903F00F0303448B604DE0FFF728
:1028CC00A3F8B8607B681968BA6813469B00134478
:1028DC009A001A447B685B689B00B2FBF3F3224AB4
:1028EC00A2FB03235B091801BA6813469B0013442F
:1028FC009A001A447B685B689B00B2FBF3F21A4B9C
:10290C00A3FB02435B09642404FB03F3D31A1B01EE
:10291C003233154AA2FB03235B0903F0F00318447E
:10292C00BA6813469B0013449A001A447B685B6890
:10293C009B00B2FBF3F20C4BA3FB02435B09642438
:10294C0004FB03F3D31A1B013233074AA2FB032304
:10295C005B0903F00F0303448B6000BF1437BD46C3
:10296C0090BD00BF003801401F85EB5180B483B08F
:10297C0000AF7860396000BF0C37BD4680BC704733
:10298C0080B485B000AF78600023FB607B681B6867
:10299C005B42FB607B68FA681A6000BF1437BD4667
:1029AC0080BC704780B588B000AF78603960002378
:1029BC00FB770023BB7700237B7700233B777B6877
:1029CC00002B09D13B6830221A703B68013300227E
:1029DC001A7000237B7753E07B68002B08DA3B6886
:1029EC002D221A7001233B773B1D1846FFF7C8FFB9
:1029FC000023FB771FE0F87F7A68254B83FB0213DB
:102A0C009910D317C91A0B469B000B445B00D11AC3
:102A1C00CBB23033DAB207F12003034403F8142CA1
:102A2C007B681B4A82FB03129210DB17D31A7B6064
:102A3C00FB7F0133FB777B68002BDCDCFB7F7B7738
:102A4C00FA7F3B7F1344FB77FB7F3A6813440022E9
:102A5C001A700023BB770FE0FB7F013BFB77FB7FFA
:102A6C003A681344BA7F07F120010A4412F8142C77
:102A7C001A70BB7F0133BB77BA7F7B7F9A42EBD353
:102A8C007A7F3B7F1344DBB218462037BD4680BDAE
:102A9C006766666680B485B000AF786039600023E5
:102AAC00FB730023BB7301237B730023BB60BB7BD5
:102ABC007A6813441B782D2B30D1FF237B73BB7B9F
:102ACC000133BB732AE0BB7B1E2B04D90023BB60F4
:102ADC000123FB7328E0BA6813469B0013445B0088
:102AEC00BB60BB7B7A6813441B782F2B11D9BB7B43
:102AFC007A6813441B78392B0BD8BB7B7A68134448
:102B0C001B78303BBA681344BB60BB7B0133BB738F
:102B1C0004E00023BB600123FB7305E0BB7B7A68F8
:102B2C0013441B78002BCED197F90D30BA6802FBF9
:102B3C0003F23B681A60FB7B18461437BD4680BC19
:102B4C007047000080B582B000AF78600D4B1B78E9
:102B5C00092B05D93A210C48FFF708FF01230DE09A
:102B6C00084B1B781946094A7B6842F82130054B03
:102B7C001B780133DAB2034B1A700023184608375E
:102B8C00BD4680BD7A010020F42D00080002002013
:102B9C0080B582B000AF0023FB7127E0FB79184AA7
:102BAC0052F823303B603B681B7A012B1BD13B68EE
:102BBC001B685A1C3B681A603B681A683B685B6868
:102BCC009A4210D33B685B68002B0CD03B68032205
:102BDC001A723B6800221A603B68DB68002B02D03B
:102BEC003B68DB689847FB790133FB71054B1B781D
:102BFC00FA799A42D2D300BF0837BD4680BD00BFD8
:102C0C00000200207A01002080B582B000AF78600D
:102C1C007868FFF797FF7B6800221A727B680022A6
:102C2C001A607B6800225A607B680022DA6000BF61
:102C3C000837BD4680BD80B483B000AF7860396082
:102C4C007B683A685A607B6801221A7200BF0C37A5
:102C5C00BD4680BC704780B483B000AF78603960EB
:102C6C007B683A685A607B6801221A727B68002282
:102C7C001A6000BF0C37BD4680BC704780B483B06F
:102C8C0000AF78607B6800221A607B6800221A72A1
:102C9C0000BF0C37BD4680BC704780B483B000AF1A
:102CAC0078607B681B6818460C37BD4680BC704743
:102CBC0080B483B000AF78607B6802221A7200BFC8
:102CCC000C37BD4680BC704780B483B000AF7860D1
:102CDC007B681B7A032B01D1012300E000231846EB
:102CEC000C37BD4680BC704780B483B000AF7860B1
:102CFC0039607B683A68DA6000BF0C37BD4680BC2F
:102D0C0070470000002103E00B4B5B58435004312B
:102D1C000A480B4B42189A42F6D30A4A02E00023A7
:102D2C0042F8043B084B9A42F9D3FDF7D1FD00F071
:102D3C000FF8FDF72DFB70477C2E000800000020DB
:102D4C00FC000020FC00002028020020FEE7000010
:102D5C0070B500250C4E0D4CA41BA410A54209D136
:102D6C0000F022F800250A4E0A4CA41BA410A54220
:102D7C0005D170BD56F8253098470135EEE756F869
:102D8C00253098470135F2E7742E0008742E0008A0
:102D9C00742E0008782E000803460244934200D19A
:102DAC00704703F8011BF9E7F8B500BFF8BC08BC85
:102DBC009E467047F8B500BFF8BC08BC9E467047ED
:102DCC002E2E5C436F72655C5372635C6D61696E31
:102DDC002E63000002030405060708090A0B0C0DFC
:102DEC000E0F1010010200002E2E5C636F6D6D6FC4
:102DFC006E5F73775F7061636B5C73775F6D6F642D
:102E0C00756C65735C73775F74696D65725C7377F1
:102E1C005F74696D65722E6300000000202445729A
:102E2C00723A636D6420746F206C6F6E673A200A7F
:102E3C000D0000000000000000000000010203046F
:102E4C00060708090000000001020304432C0008D7
:102E5C00632C0008892C0008A72C0008BD2C000846
:082E6C00D52C0008F52C00082C
:042E74003101000820
:042E78000D01000840
:102E7C0063685F30000000000000000000000000EC
:102E8C00000C01400010000000080140010000008F
:102E9C000000000000000000000000000000000026
:102EAC000000000088130000B505000863685F315E
:102EBC00000000000000000000000000000C0140B9
:102ECC00002000000008014002000000000000008B
:102EDC0000000000000000000000000000000000E6
:102EEC00204E0000E105000863685F32000000001E
:102EFC000000000000000000000C01400040000039
:102F0C000008014004000000000000000000000068
:102F1C000000000000000000000000003075000000
:102F2C00F505000863685F33000000000000000036
:102F3C0000000000000C014000800000000801406F
:102F4C00080000000000000000000000000000006D
:102F5C000000000000000000409C00000906000872
:0C2F6C0000A24A04100000000100000058
:0400000508002D11B1
:00000001FF
